{
	"votingdapp/src/contract.sol": {
		"VotingApp": {
			"abi": [
				{
					"inputs": [
						{
							"internalType": "string",
							"name": "option",
							"type": "string"
						}
					],
					"name": "addOptions",
					"outputs": [],
					"stateMutability": "nonpayable",
					"type": "function"
				},
				{
					"inputs": [
						{
							"internalType": "address",
							"name": "",
							"type": "address"
						}
					],
					"name": "hasVoted",
					"outputs": [
						{
							"internalType": "bool",
							"name": "",
							"type": "bool"
						}
					],
					"stateMutability": "view",
					"type": "function"
				},
				{
					"inputs": [
						{
							"internalType": "uint256",
							"name": "",
							"type": "uint256"
						}
					],
					"name": "options",
					"outputs": [
						{
							"internalType": "string",
							"name": "",
							"type": "string"
						}
					],
					"stateMutability": "view",
					"type": "function"
				},
				{
					"inputs": [
						{
							"internalType": "uint256",
							"name": "optionIndex",
							"type": "uint256"
						}
					],
					"name": "removeOption",
					"outputs": [],
					"stateMutability": "nonpayable",
					"type": "function"
				},
				{
					"inputs": [],
					"name": "returnOptions",
					"outputs": [
						{
							"internalType": "string[]",
							"name": "",
							"type": "string[]"
						}
					],
					"stateMutability": "view",
					"type": "function"
				},
				{
					"inputs": [],
					"name": "returnVotes",
					"outputs": [
						{
							"internalType": "uint256[]",
							"name": "",
							"type": "uint256[]"
						}
					],
					"stateMutability": "view",
					"type": "function"
				},
				{
					"inputs": [
						{
							"internalType": "uint256",
							"name": "",
							"type": "uint256"
						}
					],
					"name": "votes",
					"outputs": [
						{
							"internalType": "uint256",
							"name": "",
							"type": "uint256"
						}
					],
					"stateMutability": "view",
					"type": "function"
				},
				{
					"inputs": [],
					"name": "votesCount",
					"outputs": [
						{
							"internalType": "uint256",
							"name": "",
							"type": "uint256"
						}
					],
					"stateMutability": "view",
					"type": "function"
				},
				{
					"inputs": [
						{
							"internalType": "uint256",
							"name": "optionIndex",
							"type": "uint256"
						}
					],
					"name": "voting",
					"outputs": [],
					"stateMutability": "nonpayable",
					"type": "function"
				}
			],
			"devdoc": {
				"kind": "dev",
				"methods": {},
				"version": 1
			},
			"evm": {
				"assembly": "    /* \"votingdapp/src/contract.sol\":72:1384  contract VotingApp {... */\n  mstore(0x40, 0x80)\n  callvalue\n  dup1\n  iszero\n  tag_1\n  jumpi\n  0x00\n  dup1\n  revert\ntag_1:\n  pop\n  dataSize(sub_0)\n  dup1\n  dataOffset(sub_0)\n  0x00\n  codecopy\n  0x00\n  return\nstop\n\nsub_0: assembly {\n        /* \"votingdapp/src/contract.sol\":72:1384  contract VotingApp {... */\n      mstore(0x40, 0x80)\n      callvalue\n      dup1\n      iszero\n      tag_1\n      jumpi\n      0x00\n      dup1\n      revert\n    tag_1:\n      pop\n      jumpi(tag_2, lt(calldatasize, 0x04))\n      shr(0xe0, calldataload(0x00))\n      dup1\n      0x5df81330\n      gt\n      tag_12\n      jumpi\n      dup1\n      0x5df81330\n      eq\n      tag_7\n      jumpi\n      dup1\n      0x8778b27d\n      eq\n      tag_8\n      jumpi\n      dup1\n      0x9242850a\n      eq\n      tag_9\n      jumpi\n      dup1\n      0x9ac28f8c\n      eq\n      tag_10\n      jumpi\n      dup1\n      0xfd4a77f1\n      eq\n      tag_11\n      jumpi\n      jump(tag_2)\n    tag_12:\n      dup1\n      0x09eef43e\n      eq\n      tag_3\n      jumpi\n      dup1\n      0x32748fdb\n      eq\n      tag_4\n      jumpi\n      dup1\n      0x357da247\n      eq\n      tag_5\n      jumpi\n      dup1\n      0x409e2205\n      eq\n      tag_6\n      jumpi\n    tag_2:\n      0x00\n      dup1\n      revert\n        /* \"votingdapp/src/contract.sol\":173:213  mapping(address => bool) public hasVoted */\n    tag_3:\n      tag_13\n      0x04\n      dup1\n      calldatasize\n      sub\n      dup2\n      add\n      swap1\n      tag_14\n      swap2\n      swap1\n      tag_15\n      jump\t// in\n    tag_14:\n      tag_16\n      jump\t// in\n    tag_13:\n      mload(0x40)\n      tag_17\n      swap2\n      swap1\n      tag_18\n      jump\t// in\n    tag_17:\n      mload(0x40)\n      dup1\n      swap2\n      sub\n      swap1\n      return\n        /* \"votingdapp/src/contract.sol\":632:1003  function removeOption(uint256 optionIndex) public {... */\n    tag_4:\n      tag_19\n      0x04\n      dup1\n      calldatasize\n      sub\n      dup2\n      add\n      swap1\n      tag_20\n      swap2\n      swap1\n      tag_21\n      jump\t// in\n    tag_20:\n      tag_22\n      jump\t// in\n    tag_19:\n      stop\n        /* \"votingdapp/src/contract.sol\":1113:1381  function returnVotes() public  view returns(uint[] memory){... */\n    tag_5:\n      tag_23\n      tag_24\n      jump\t// in\n    tag_23:\n      mload(0x40)\n      tag_25\n      swap2\n      swap1\n      tag_26\n      jump\t// in\n    tag_25:\n      mload(0x40)\n      dup1\n      swap2\n      sub\n      swap1\n      return\n        /* \"votingdapp/src/contract.sol\":102:125  string[] public options */\n    tag_6:\n      tag_27\n      0x04\n      dup1\n      calldatasize\n      sub\n      dup2\n      add\n      swap1\n      tag_28\n      swap2\n      swap1\n      tag_21\n      jump\t// in\n    tag_28:\n      tag_29\n      jump\t// in\n    tag_27:\n      mload(0x40)\n      tag_30\n      swap2\n      swap1\n      tag_31\n      jump\t// in\n    tag_30:\n      mload(0x40)\n      dup1\n      swap2\n      sub\n      swap1\n      return\n        /* \"votingdapp/src/contract.sol\":132:166  mapping(uint => uint) public votes */\n    tag_7:\n      tag_32\n      0x04\n      dup1\n      calldatasize\n      sub\n      dup2\n      add\n      swap1\n      tag_33\n      swap2\n      swap1\n      tag_21\n      jump\t// in\n    tag_33:\n      tag_34\n      jump\t// in\n    tag_32:\n      mload(0x40)\n      tag_35\n      swap2\n      swap1\n      tag_36\n      jump\t// in\n    tag_35:\n      mload(0x40)\n      dup1\n      swap2\n      sub\n      swap1\n      return\n        /* \"votingdapp/src/contract.sol\":220:242  uint public votesCount */\n    tag_8:\n      tag_37\n      tag_38\n      jump\t// in\n    tag_37:\n      mload(0x40)\n      tag_39\n      swap2\n      swap1\n      tag_36\n      jump\t// in\n    tag_39:\n      mload(0x40)\n      dup1\n      swap2\n      sub\n      swap1\n      return\n        /* \"votingdapp/src/contract.sol\":253:341  function addOptions(string memory option) public {... */\n    tag_9:\n      tag_40\n      0x04\n      dup1\n      calldatasize\n      sub\n      dup2\n      add\n      swap1\n      tag_41\n      swap2\n      swap1\n      tag_42\n      jump\t// in\n    tag_41:\n      tag_43\n      jump\t// in\n    tag_40:\n      stop\n        /* \"votingdapp/src/contract.sol\":1011:1105  function returnOptions() public view returns(string[] memory){... */\n    tag_10:\n      tag_44\n      tag_45\n      jump\t// in\n    tag_44:\n      mload(0x40)\n      tag_46\n      swap2\n      swap1\n      tag_47\n      jump\t// in\n    tag_46:\n      mload(0x40)\n      dup1\n      swap2\n      sub\n      swap1\n      return\n        /* \"votingdapp/src/contract.sol\":349:626  function voting(uint optionIndex) public {... */\n    tag_11:\n      tag_48\n      0x04\n      dup1\n      calldatasize\n      sub\n      dup2\n      add\n      swap1\n      tag_49\n      swap2\n      swap1\n      tag_21\n      jump\t// in\n    tag_49:\n      tag_50\n      jump\t// in\n    tag_48:\n      stop\n        /* \"votingdapp/src/contract.sol\":173:213  mapping(address => bool) public hasVoted */\n    tag_16:\n      mstore(0x20, 0x02)\n      dup1\n      0x00\n      mstore\n      keccak256(0x00, 0x40)\n      0x00\n      swap2\n      pop\n      sload\n      swap1\n      0x0100\n      exp\n      swap1\n      div\n      0xff\n      and\n      dup2\n      jump\t// out\n        /* \"votingdapp/src/contract.sol\":632:1003  function removeOption(uint256 optionIndex) public {... */\n    tag_22:\n        /* \"votingdapp/src/contract.sol\":715:722  options */\n      0x00\n        /* \"votingdapp/src/contract.sol\":715:729  options.length */\n      dup1\n      sload\n      swap1\n      pop\n        /* \"votingdapp/src/contract.sol\":701:712  optionIndex */\n      dup2\n        /* \"votingdapp/src/contract.sol\":701:729  optionIndex < options.length */\n      lt\n        /* \"votingdapp/src/contract.sol\":693:760  require(optionIndex < options.length, \"Nieprawidlowy indeks opcji\") */\n      tag_52\n      jumpi\n      mload(0x40)\n      0x08c379a000000000000000000000000000000000000000000000000000000000\n      dup2\n      mstore\n      0x04\n      add\n      tag_53\n      swap1\n      tag_54\n      jump\t// in\n    tag_53:\n      mload(0x40)\n      dup1\n      swap2\n      sub\n      swap1\n      revert\n    tag_52:\n        /* \"votingdapp/src/contract.sol\":780:789  uint256 i */\n      0x00\n        /* \"votingdapp/src/contract.sol\":792:803  optionIndex */\n      dup2\n        /* \"votingdapp/src/contract.sol\":780:803  uint256 i = optionIndex */\n      swap1\n      pop\n        /* \"votingdapp/src/contract.sol\":775:926  for (uint256 i = optionIndex; i < options.length - 1; i++) {... */\n    tag_55:\n        /* \"votingdapp/src/contract.sol\":826:827  1 */\n      0x01\n        /* \"votingdapp/src/contract.sol\":809:816  options */\n      0x00\n        /* \"votingdapp/src/contract.sol\":809:823  options.length */\n      dup1\n      sload\n      swap1\n      pop\n        /* \"votingdapp/src/contract.sol\":809:827  options.length - 1 */\n      tag_58\n      swap2\n      swap1\n      tag_59\n      jump\t// in\n    tag_58:\n        /* \"votingdapp/src/contract.sol\":805:806  i */\n      dup2\n        /* \"votingdapp/src/contract.sol\":805:827  i < options.length - 1 */\n      lt\n        /* \"votingdapp/src/contract.sol\":775:926  for (uint256 i = optionIndex; i < options.length - 1; i++) {... */\n      iszero\n      tag_56\n      jumpi\n        /* \"votingdapp/src/contract.sol\":862:869  options */\n      0x00\n        /* \"votingdapp/src/contract.sol\":874:875  1 */\n      0x01\n        /* \"votingdapp/src/contract.sol\":870:871  i */\n      dup3\n        /* \"votingdapp/src/contract.sol\":870:875  i + 1 */\n      tag_60\n      swap2\n      swap1\n      tag_61\n      jump\t// in\n    tag_60:\n        /* \"votingdapp/src/contract.sol\":862:876  options[i + 1] */\n      dup2\n      sload\n      dup2\n      lt\n      tag_62\n      jumpi\n      tag_63\n      tag_64\n      jump\t// in\n    tag_63:\n    tag_62:\n      swap1\n      0x00\n      mstore\n      keccak256(0x00, 0x20)\n      add\n        /* \"votingdapp/src/contract.sol\":849:856  options */\n      0x00\n        /* \"votingdapp/src/contract.sol\":857:858  i */\n      dup3\n        /* \"votingdapp/src/contract.sol\":849:859  options[i] */\n      dup2\n      sload\n      dup2\n      lt\n      tag_66\n      jumpi\n      tag_67\n      tag_64\n      jump\t// in\n    tag_67:\n    tag_66:\n      swap1\n      0x00\n      mstore\n      keccak256(0x00, 0x20)\n      add\n        /* \"votingdapp/src/contract.sol\":849:876  options[i] = options[i + 1] */\n      swap1\n      dup2\n      tag_69\n      swap2\n      swap1\n      tag_70\n      jump\t// in\n    tag_69:\n      pop\n        /* \"votingdapp/src/contract.sol\":902:907  votes */\n      0x01\n        /* \"votingdapp/src/contract.sol\":902:914  votes[i + 1] */\n      0x00\n        /* \"votingdapp/src/contract.sol\":912:913  1 */\n      0x01\n        /* \"votingdapp/src/contract.sol\":908:909  i */\n      dup4\n        /* \"votingdapp/src/contract.sol\":908:913  i + 1 */\n      tag_71\n      swap2\n      swap1\n      tag_61\n      jump\t// in\n    tag_71:\n        /* \"votingdapp/src/contract.sol\":902:914  votes[i + 1] */\n      dup2\n      mstore\n      0x20\n      add\n      swap1\n      dup2\n      mstore\n      0x20\n      add\n      0x00\n      keccak256\n      sload\n        /* \"votingdapp/src/contract.sol\":891:896  votes */\n      0x01\n        /* \"votingdapp/src/contract.sol\":891:899  votes[i] */\n      0x00\n        /* \"votingdapp/src/contract.sol\":897:898  i */\n      dup4\n        /* \"votingdapp/src/contract.sol\":891:899  votes[i] */\n      dup2\n      mstore\n      0x20\n      add\n      swap1\n      dup2\n      mstore\n      0x20\n      add\n      0x00\n      keccak256\n        /* \"votingdapp/src/contract.sol\":891:914  votes[i] = votes[i + 1] */\n      dup2\n      swap1\n      sstore\n      pop\n        /* \"votingdapp/src/contract.sol\":829:832  i++ */\n      dup1\n      dup1\n      0x01\n      add\n      swap2\n      pop\n      pop\n        /* \"votingdapp/src/contract.sol\":775:926  for (uint256 i = optionIndex; i < options.length - 1; i++) {... */\n      jump(tag_55)\n    tag_56:\n      pop\n        /* \"votingdapp/src/contract.sol\":936:943  options */\n      0x00\n        /* \"votingdapp/src/contract.sol\":936:949  options.pop() */\n      dup1\n      sload\n      dup1\n      tag_72\n      jumpi\n      tag_73\n      tag_74\n      jump\t// in\n    tag_73:\n    tag_72:\n      0x01\n      swap1\n      sub\n      dup2\n      dup2\n      swap1\n      0x00\n      mstore\n      keccak256(0x00, 0x20)\n      add\n      0x00\n      tag_76\n      swap2\n      swap1\n      tag_77\n      jump\t// in\n    tag_76:\n      swap1\n      sstore\n        /* \"votingdapp/src/contract.sol\":969:974  votes */\n      0x01\n        /* \"votingdapp/src/contract.sol\":969:994  votes[options.length - 1] */\n      0x00\n        /* \"votingdapp/src/contract.sol\":992:993  1 */\n      0x01\n        /* \"votingdapp/src/contract.sol\":975:982  options */\n      0x00\n        /* \"votingdapp/src/contract.sol\":975:989  options.length */\n      dup1\n      sload\n      swap1\n      pop\n        /* \"votingdapp/src/contract.sol\":975:993  options.length - 1 */\n      tag_78\n      swap2\n      swap1\n      tag_59\n      jump\t// in\n    tag_78:\n        /* \"votingdapp/src/contract.sol\":969:994  votes[options.length - 1] */\n      dup2\n      mstore\n      0x20\n      add\n      swap1\n      dup2\n      mstore\n      0x20\n      add\n      0x00\n      keccak256\n        /* \"votingdapp/src/contract.sol\":962:994  delete votes[options.length - 1] */\n      0x00\n      swap1\n      sstore\n        /* \"votingdapp/src/contract.sol\":632:1003  function removeOption(uint256 optionIndex) public {... */\n      pop\n      jump\t// out\n        /* \"votingdapp/src/contract.sol\":1113:1381  function returnVotes() public  view returns(uint[] memory){... */\n    tag_24:\n        /* \"votingdapp/src/contract.sol\":1157:1170  uint[] memory */\n      0x60\n        /* \"votingdapp/src/contract.sol\":1182:1204  uint[] memory allVotes */\n      0x00\n        /* \"votingdapp/src/contract.sol\":1218:1225  options */\n      dup1\n        /* \"votingdapp/src/contract.sol\":1218:1232  options.length */\n      dup1\n      sload\n      swap1\n      pop\n        /* \"votingdapp/src/contract.sol\":1207:1233  new uint[](options.length) */\n      0xffffffffffffffff\n      dup2\n      gt\n      iszero\n      tag_80\n      jumpi\n      tag_81\n      tag_82\n      jump\t// in\n    tag_81:\n    tag_80:\n      mload(0x40)\n      swap1\n      dup1\n      dup3\n      mstore\n      dup1\n      0x20\n      mul\n      0x20\n      add\n      dup3\n      add\n      0x40\n      mstore\n      dup1\n      iszero\n      tag_83\n      jumpi\n      dup2\n      0x20\n      add\n      0x20\n      dup3\n      mul\n      dup1\n      calldatasize\n      dup4\n      calldatacopy\n      dup1\n      dup3\n      add\n      swap2\n      pop\n      pop\n      swap1\n      pop\n    tag_83:\n      pop\n        /* \"votingdapp/src/contract.sol\":1182:1233  uint[] memory allVotes = new uint[](options.length) */\n      swap1\n      pop\n        /* \"votingdapp/src/contract.sol\":1248:1254  uint i */\n      0x00\n        /* \"votingdapp/src/contract.sol\":1244:1345  for(uint i=0; i<options.length; i++){... */\n    tag_84:\n        /* \"votingdapp/src/contract.sol\":1260:1267  options */\n      0x00\n        /* \"votingdapp/src/contract.sol\":1260:1274  options.length */\n      dup1\n      sload\n      swap1\n      pop\n        /* \"votingdapp/src/contract.sol\":1258:1259  i */\n      dup2\n        /* \"votingdapp/src/contract.sol\":1258:1274  i<options.length */\n      lt\n        /* \"votingdapp/src/contract.sol\":1244:1345  for(uint i=0; i<options.length; i++){... */\n      iszero\n      tag_85\n      jumpi\n        /* \"votingdapp/src/contract.sol\":1309:1314  votes */\n      0x01\n        /* \"votingdapp/src/contract.sol\":1309:1317  votes[i] */\n      0x00\n        /* \"votingdapp/src/contract.sol\":1315:1316  i */\n      dup3\n        /* \"votingdapp/src/contract.sol\":1309:1317  votes[i] */\n      dup2\n      mstore\n      0x20\n      add\n      swap1\n      dup2\n      mstore\n      0x20\n      add\n      0x00\n      keccak256\n      sload\n        /* \"votingdapp/src/contract.sol\":1295:1303  allVotes */\n      dup3\n        /* \"votingdapp/src/contract.sol\":1304:1305  i */\n      dup3\n        /* \"votingdapp/src/contract.sol\":1295:1306  allVotes[i] */\n      dup2\n      mload\n      dup2\n      lt\n      tag_87\n      jumpi\n      tag_88\n      tag_64\n      jump\t// in\n    tag_88:\n    tag_87:\n      0x20\n      mul\n      0x20\n      add\n      add\n        /* \"votingdapp/src/contract.sol\":1295:1317  allVotes[i] = votes[i] */\n      dup2\n      dup2\n      mstore\n      pop\n      pop\n        /* \"votingdapp/src/contract.sol\":1276:1279  i++ */\n      dup1\n      dup1\n      0x01\n      add\n      swap2\n      pop\n      pop\n        /* \"votingdapp/src/contract.sol\":1244:1345  for(uint i=0; i<options.length; i++){... */\n      jump(tag_84)\n    tag_85:\n      pop\n        /* \"votingdapp/src/contract.sol\":1363:1371  allVotes */\n      dup1\n        /* \"votingdapp/src/contract.sol\":1355:1371  return  allVotes */\n      swap2\n      pop\n      pop\n        /* \"votingdapp/src/contract.sol\":1113:1381  function returnVotes() public  view returns(uint[] memory){... */\n      swap1\n      jump\t// out\n        /* \"votingdapp/src/contract.sol\":102:125  string[] public options */\n    tag_29:\n      0x00\n      dup2\n      dup2\n      sload\n      dup2\n      lt\n      tag_89\n      jumpi\n      0x00\n      dup1\n      revert\n    tag_89:\n      swap1\n      0x00\n      mstore\n      keccak256(0x00, 0x20)\n      add\n      0x00\n      swap2\n      pop\n      swap1\n      pop\n      dup1\n      sload\n      tag_91\n      swap1\n      tag_92\n      jump\t// in\n    tag_91:\n      dup1\n      0x1f\n      add\n      0x20\n      dup1\n      swap2\n      div\n      mul\n      0x20\n      add\n      mload(0x40)\n      swap1\n      dup2\n      add\n      0x40\n      mstore\n      dup1\n      swap3\n      swap2\n      swap1\n      dup2\n      dup2\n      mstore\n      0x20\n      add\n      dup3\n      dup1\n      sload\n      tag_93\n      swap1\n      tag_92\n      jump\t// in\n    tag_93:\n      dup1\n      iszero\n      tag_94\n      jumpi\n      dup1\n      0x1f\n      lt\n      tag_95\n      jumpi\n      0x0100\n      dup1\n      dup4\n      sload\n      div\n      mul\n      dup4\n      mstore\n      swap2\n      0x20\n      add\n      swap2\n      jump(tag_94)\n    tag_95:\n      dup3\n      add\n      swap2\n      swap1\n      0x00\n      mstore\n      keccak256(0x00, 0x20)\n      swap1\n    tag_96:\n      dup2\n      sload\n      dup2\n      mstore\n      swap1\n      0x01\n      add\n      swap1\n      0x20\n      add\n      dup1\n      dup4\n      gt\n      tag_96\n      jumpi\n      dup3\n      swap1\n      sub\n      0x1f\n      and\n      dup3\n      add\n      swap2\n    tag_94:\n      pop\n      pop\n      pop\n      pop\n      pop\n      dup2\n      jump\t// out\n        /* \"votingdapp/src/contract.sol\":132:166  mapping(uint => uint) public votes */\n    tag_34:\n      mstore(0x20, 0x01)\n      dup1\n      0x00\n      mstore\n      keccak256(0x00, 0x40)\n      0x00\n      swap2\n      pop\n      swap1\n      pop\n      sload\n      dup2\n      jump\t// out\n        /* \"votingdapp/src/contract.sol\":220:242  uint public votesCount */\n    tag_38:\n      sload(0x03)\n      dup2\n      jump\t// out\n        /* \"votingdapp/src/contract.sol\":253:341  function addOptions(string memory option) public {... */\n    tag_43:\n        /* \"votingdapp/src/contract.sol\":313:320  options */\n      0x00\n        /* \"votingdapp/src/contract.sol\":326:332  option */\n      dup2\n        /* \"votingdapp/src/contract.sol\":313:333  options.push(option) */\n      swap1\n      dup1\n      0x01\n      dup2\n      sload\n      add\n      dup1\n      dup3\n      sstore\n      dup1\n      swap2\n      pop\n      pop\n      0x01\n      swap1\n      sub\n      swap1\n      0x00\n      mstore\n      keccak256(0x00, 0x20)\n      add\n      0x00\n      swap1\n      swap2\n      swap1\n      swap2\n      swap1\n      swap2\n      pop\n      swap1\n      dup2\n      tag_99\n      swap2\n      swap1\n      tag_100\n      jump\t// in\n    tag_99:\n      pop\n        /* \"votingdapp/src/contract.sol\":253:341  function addOptions(string memory option) public {... */\n      pop\n      jump\t// out\n        /* \"votingdapp/src/contract.sol\":1011:1105  function returnOptions() public view returns(string[] memory){... */\n    tag_45:\n        /* \"votingdapp/src/contract.sol\":1056:1071  string[] memory */\n      0x60\n        /* \"votingdapp/src/contract.sol\":1090:1097  options */\n      0x00\n        /* \"votingdapp/src/contract.sol\":1083:1097  return options */\n      dup1\n      sload\n      dup1\n      0x20\n      mul\n      0x20\n      add\n      mload(0x40)\n      swap1\n      dup2\n      add\n      0x40\n      mstore\n      dup1\n      swap3\n      swap2\n      swap1\n      dup2\n      dup2\n      mstore\n      0x20\n      add\n      0x00\n      swap1\n    tag_102:\n      dup3\n      dup3\n      lt\n      iszero\n      tag_103\n      jumpi\n      dup4\n      dup3\n      swap1\n      0x00\n      mstore\n      keccak256(0x00, 0x20)\n      add\n      dup1\n      sload\n      tag_105\n      swap1\n      tag_92\n      jump\t// in\n    tag_105:\n      dup1\n      0x1f\n      add\n      0x20\n      dup1\n      swap2\n      div\n      mul\n      0x20\n      add\n      mload(0x40)\n      swap1\n      dup2\n      add\n      0x40\n      mstore\n      dup1\n      swap3\n      swap2\n      swap1\n      dup2\n      dup2\n      mstore\n      0x20\n      add\n      dup3\n      dup1\n      sload\n      tag_106\n      swap1\n      tag_92\n      jump\t// in\n    tag_106:\n      dup1\n      iszero\n      tag_107\n      jumpi\n      dup1\n      0x1f\n      lt\n      tag_108\n      jumpi\n      0x0100\n      dup1\n      dup4\n      sload\n      div\n      mul\n      dup4\n      mstore\n      swap2\n      0x20\n      add\n      swap2\n      jump(tag_107)\n    tag_108:\n      dup3\n      add\n      swap2\n      swap1\n      0x00\n      mstore\n      keccak256(0x00, 0x20)\n      swap1\n    tag_109:\n      dup2\n      sload\n      dup2\n      mstore\n      swap1\n      0x01\n      add\n      swap1\n      0x20\n      add\n      dup1\n      dup4\n      gt\n      tag_109\n      jumpi\n      dup3\n      swap1\n      sub\n      0x1f\n      and\n      dup3\n      add\n      swap2\n    tag_107:\n      pop\n      pop\n      pop\n      pop\n      pop\n      dup2\n      mstore\n      0x20\n      add\n      swap1\n      0x01\n      add\n      swap1\n      jump(tag_102)\n    tag_103:\n      pop\n      pop\n      pop\n      pop\n      swap1\n      pop\n        /* \"votingdapp/src/contract.sol\":1011:1105  function returnOptions() public view returns(string[] memory){... */\n      swap1\n      jump\t// out\n        /* \"votingdapp/src/contract.sol\":349:626  function voting(uint optionIndex) public {... */\n    tag_50:\n        /* \"votingdapp/src/contract.sol\":423:430  options */\n      0x00\n        /* \"votingdapp/src/contract.sol\":423:437  options.length */\n      dup1\n      sload\n      swap1\n      pop\n        /* \"votingdapp/src/contract.sol\":409:420  optionIndex */\n      dup2\n        /* \"votingdapp/src/contract.sol\":409:437  optionIndex < options.length */\n      lt\n        /* \"votingdapp/src/contract.sol\":401:460  require(optionIndex < options.length,\"Select right option\") */\n      tag_111\n      jumpi\n      mload(0x40)\n      0x08c379a000000000000000000000000000000000000000000000000000000000\n      dup2\n      mstore\n      0x04\n      add\n      tag_112\n      swap1\n      tag_113\n      jump\t// in\n    tag_112:\n      mload(0x40)\n      dup1\n      swap2\n      sub\n      swap1\n      revert\n    tag_111:\n        /* \"votingdapp/src/contract.sol\":480:488  hasVoted */\n      0x02\n        /* \"votingdapp/src/contract.sol\":480:500  hasVoted[msg.sender] */\n      0x00\n        /* \"votingdapp/src/contract.sol\":489:499  msg.sender */\n      caller\n        /* \"votingdapp/src/contract.sol\":480:500  hasVoted[msg.sender] */\n      0xffffffffffffffffffffffffffffffffffffffff\n      and\n      0xffffffffffffffffffffffffffffffffffffffff\n      and\n      dup2\n      mstore\n      0x20\n      add\n      swap1\n      dup2\n      mstore\n      0x20\n      add\n      0x00\n      keccak256\n      0x00\n      swap1\n      sload\n      swap1\n      0x0100\n      exp\n      swap1\n      div\n      0xff\n      and\n        /* \"votingdapp/src/contract.sol\":479:500  !hasVoted[msg.sender] */\n      iszero\n        /* \"votingdapp/src/contract.sol\":471:519  require(!hasVoted[msg.sender],\"U already voted\") */\n      tag_114\n      jumpi\n      mload(0x40)\n      0x08c379a000000000000000000000000000000000000000000000000000000000\n      dup2\n      mstore\n      0x04\n      add\n      tag_115\n      swap1\n      tag_116\n      jump\t// in\n    tag_115:\n      mload(0x40)\n      dup1\n      swap2\n      sub\n      swap1\n      revert\n    tag_114:\n        /* \"votingdapp/src/contract.sol\":554:555  1 */\n      0x01\n        /* \"votingdapp/src/contract.sol\":532:537  votes */\n      dup1\n        /* \"votingdapp/src/contract.sol\":532:550  votes[optionIndex] */\n      0x00\n        /* \"votingdapp/src/contract.sol\":538:549  optionIndex */\n      dup4\n        /* \"votingdapp/src/contract.sol\":532:550  votes[optionIndex] */\n      dup2\n      mstore\n      0x20\n      add\n      swap1\n      dup2\n      mstore\n      0x20\n      add\n      0x00\n      keccak256\n      0x00\n        /* \"votingdapp/src/contract.sol\":532:555  votes[optionIndex] += 1 */\n      dup3\n      dup3\n      sload\n      tag_117\n      swap2\n      swap1\n      tag_61\n      jump\t// in\n    tag_117:\n      swap3\n      pop\n      pop\n      dup2\n      swap1\n      sstore\n      pop\n        /* \"votingdapp/src/contract.sol\":589:593  true */\n      0x01\n        /* \"votingdapp/src/contract.sol\":566:574  hasVoted */\n      0x02\n        /* \"votingdapp/src/contract.sol\":566:586  hasVoted[msg.sender] */\n      0x00\n        /* \"votingdapp/src/contract.sol\":575:585  msg.sender */\n      caller\n        /* \"votingdapp/src/contract.sol\":566:586  hasVoted[msg.sender] */\n      0xffffffffffffffffffffffffffffffffffffffff\n      and\n      0xffffffffffffffffffffffffffffffffffffffff\n      and\n      dup2\n      mstore\n      0x20\n      add\n      swap1\n      dup2\n      mstore\n      0x20\n      add\n      0x00\n      keccak256\n      0x00\n        /* \"votingdapp/src/contract.sol\":566:593  hasVoted[msg.sender] = true */\n      0x0100\n      exp\n      dup2\n      sload\n      dup2\n      0xff\n      mul\n      not\n      and\n      swap1\n      dup4\n      iszero\n      iszero\n      mul\n      or\n      swap1\n      sstore\n      pop\n        /* \"votingdapp/src/contract.sol\":604:614  votesCount */\n      0x03\n      0x00\n        /* \"votingdapp/src/contract.sol\":604:616  votesCount++ */\n      dup2\n      sload\n      dup1\n      swap3\n      swap2\n      swap1\n      tag_118\n      swap1\n      tag_119\n      jump\t// in\n    tag_118:\n      swap2\n      swap1\n      pop\n      sstore\n      pop\n        /* \"votingdapp/src/contract.sol\":349:626  function voting(uint optionIndex) public {... */\n      pop\n      jump\t// out\n    tag_77:\n      pop\n      dup1\n      sload\n      tag_120\n      swap1\n      tag_92\n      jump\t// in\n    tag_120:\n      0x00\n      dup3\n      sstore\n      dup1\n      0x1f\n      lt\n      tag_122\n      jumpi\n      pop\n      jump(tag_121)\n    tag_122:\n      0x1f\n      add\n      0x20\n      swap1\n      div\n      swap1\n      0x00\n      mstore\n      keccak256(0x00, 0x20)\n      swap1\n      dup2\n      add\n      swap1\n      tag_123\n      swap2\n      swap1\n      tag_124\n      jump\t// in\n    tag_123:\n    tag_121:\n      pop\n      jump\t// out\n    tag_124:\n    tag_125:\n      dup1\n      dup3\n      gt\n      iszero\n      tag_126\n      jumpi\n      0x00\n      dup2\n      0x00\n      swap1\n      sstore\n      pop\n      0x01\n      add\n      jump(tag_125)\n    tag_126:\n      pop\n      swap1\n      jump\t// out\n        /* \"#utility.yul\":7:82   */\n    tag_127:\n        /* \"#utility.yul\":40:46   */\n      0x00\n        /* \"#utility.yul\":73:75   */\n      0x40\n        /* \"#utility.yul\":67:76   */\n      mload\n        /* \"#utility.yul\":57:76   */\n      swap1\n      pop\n        /* \"#utility.yul\":7:82   */\n      swap1\n      jump\t// out\n        /* \"#utility.yul\":88:205   */\n    tag_128:\n        /* \"#utility.yul\":197:198   */\n      0x00\n        /* \"#utility.yul\":194:195   */\n      dup1\n        /* \"#utility.yul\":187:199   */\n      revert\n        /* \"#utility.yul\":211:328   */\n    tag_129:\n        /* \"#utility.yul\":320:321   */\n      0x00\n        /* \"#utility.yul\":317:318   */\n      dup1\n        /* \"#utility.yul\":310:322   */\n      revert\n        /* \"#utility.yul\":334:460   */\n    tag_130:\n        /* \"#utility.yul\":371:378   */\n      0x00\n        /* \"#utility.yul\":411:453   */\n      0xffffffffffffffffffffffffffffffffffffffff\n        /* \"#utility.yul\":404:409   */\n      dup3\n        /* \"#utility.yul\":400:454   */\n      and\n        /* \"#utility.yul\":389:454   */\n      swap1\n      pop\n        /* \"#utility.yul\":334:460   */\n      swap2\n      swap1\n      pop\n      jump\t// out\n        /* \"#utility.yul\":466:562   */\n    tag_131:\n        /* \"#utility.yul\":503:510   */\n      0x00\n        /* \"#utility.yul\":532:556   */\n      tag_199\n        /* \"#utility.yul\":550:555   */\n      dup3\n        /* \"#utility.yul\":532:556   */\n      tag_130\n      jump\t// in\n    tag_199:\n        /* \"#utility.yul\":521:556   */\n      swap1\n      pop\n        /* \"#utility.yul\":466:562   */\n      swap2\n      swap1\n      pop\n      jump\t// out\n        /* \"#utility.yul\":568:690   */\n    tag_132:\n        /* \"#utility.yul\":641:665   */\n      tag_201\n        /* \"#utility.yul\":659:664   */\n      dup2\n        /* \"#utility.yul\":641:665   */\n      tag_131\n      jump\t// in\n    tag_201:\n        /* \"#utility.yul\":634:639   */\n      dup2\n        /* \"#utility.yul\":631:666   */\n      eq\n        /* \"#utility.yul\":621:684   */\n      tag_202\n      jumpi\n        /* \"#utility.yul\":680:681   */\n      0x00\n        /* \"#utility.yul\":677:678   */\n      dup1\n        /* \"#utility.yul\":670:682   */\n      revert\n        /* \"#utility.yul\":621:684   */\n    tag_202:\n        /* \"#utility.yul\":568:690   */\n      pop\n      jump\t// out\n        /* \"#utility.yul\":696:835   */\n    tag_133:\n        /* \"#utility.yul\":742:747   */\n      0x00\n        /* \"#utility.yul\":780:786   */\n      dup2\n        /* \"#utility.yul\":767:787   */\n      calldataload\n        /* \"#utility.yul\":758:787   */\n      swap1\n      pop\n        /* \"#utility.yul\":796:829   */\n      tag_204\n        /* \"#utility.yul\":823:828   */\n      dup2\n        /* \"#utility.yul\":796:829   */\n      tag_132\n      jump\t// in\n    tag_204:\n        /* \"#utility.yul\":696:835   */\n      swap3\n      swap2\n      pop\n      pop\n      jump\t// out\n        /* \"#utility.yul\":841:1170   */\n    tag_15:\n        /* \"#utility.yul\":900:906   */\n      0x00\n        /* \"#utility.yul\":949:951   */\n      0x20\n        /* \"#utility.yul\":937:946   */\n      dup3\n        /* \"#utility.yul\":928:935   */\n      dup5\n        /* \"#utility.yul\":924:947   */\n      sub\n        /* \"#utility.yul\":920:952   */\n      slt\n        /* \"#utility.yul\":917:1036   */\n      iszero\n      tag_206\n      jumpi\n        /* \"#utility.yul\":955:1034   */\n      tag_207\n      tag_128\n      jump\t// in\n    tag_207:\n        /* \"#utility.yul\":917:1036   */\n    tag_206:\n        /* \"#utility.yul\":1075:1076   */\n      0x00\n        /* \"#utility.yul\":1100:1153   */\n      tag_208\n        /* \"#utility.yul\":1145:1152   */\n      dup5\n        /* \"#utility.yul\":1136:1142   */\n      dup3\n        /* \"#utility.yul\":1125:1134   */\n      dup6\n        /* \"#utility.yul\":1121:1143   */\n      add\n        /* \"#utility.yul\":1100:1153   */\n      tag_133\n      jump\t// in\n    tag_208:\n        /* \"#utility.yul\":1090:1153   */\n      swap2\n      pop\n        /* \"#utility.yul\":1046:1163   */\n      pop\n        /* \"#utility.yul\":841:1170   */\n      swap3\n      swap2\n      pop\n      pop\n      jump\t// out\n        /* \"#utility.yul\":1176:1266   */\n    tag_134:\n        /* \"#utility.yul\":1210:1217   */\n      0x00\n        /* \"#utility.yul\":1253:1258   */\n      dup2\n        /* \"#utility.yul\":1246:1259   */\n      iszero\n        /* \"#utility.yul\":1239:1260   */\n      iszero\n        /* \"#utility.yul\":1228:1260   */\n      swap1\n      pop\n        /* \"#utility.yul\":1176:1266   */\n      swap2\n      swap1\n      pop\n      jump\t// out\n        /* \"#utility.yul\":1272:1381   */\n    tag_135:\n        /* \"#utility.yul\":1353:1374   */\n      tag_211\n        /* \"#utility.yul\":1368:1373   */\n      dup2\n        /* \"#utility.yul\":1353:1374   */\n      tag_134\n      jump\t// in\n    tag_211:\n        /* \"#utility.yul\":1348:1351   */\n      dup3\n        /* \"#utility.yul\":1341:1375   */\n      mstore\n        /* \"#utility.yul\":1272:1381   */\n      pop\n      pop\n      jump\t// out\n        /* \"#utility.yul\":1387:1597   */\n    tag_18:\n        /* \"#utility.yul\":1474:1478   */\n      0x00\n        /* \"#utility.yul\":1512:1514   */\n      0x20\n        /* \"#utility.yul\":1501:1510   */\n      dup3\n        /* \"#utility.yul\":1497:1515   */\n      add\n        /* \"#utility.yul\":1489:1515   */\n      swap1\n      pop\n        /* \"#utility.yul\":1525:1590   */\n      tag_213\n        /* \"#utility.yul\":1587:1588   */\n      0x00\n        /* \"#utility.yul\":1576:1585   */\n      dup4\n        /* \"#utility.yul\":1572:1589   */\n      add\n        /* \"#utility.yul\":1563:1569   */\n      dup5\n        /* \"#utility.yul\":1525:1590   */\n      tag_135\n      jump\t// in\n    tag_213:\n        /* \"#utility.yul\":1387:1597   */\n      swap3\n      swap2\n      pop\n      pop\n      jump\t// out\n        /* \"#utility.yul\":1603:1680   */\n    tag_136:\n        /* \"#utility.yul\":1640:1647   */\n      0x00\n        /* \"#utility.yul\":1669:1674   */\n      dup2\n        /* \"#utility.yul\":1658:1674   */\n      swap1\n      pop\n        /* \"#utility.yul\":1603:1680   */\n      swap2\n      swap1\n      pop\n      jump\t// out\n        /* \"#utility.yul\":1686:1808   */\n    tag_137:\n        /* \"#utility.yul\":1759:1783   */\n      tag_216\n        /* \"#utility.yul\":1777:1782   */\n      dup2\n        /* \"#utility.yul\":1759:1783   */\n      tag_136\n      jump\t// in\n    tag_216:\n        /* \"#utility.yul\":1752:1757   */\n      dup2\n        /* \"#utility.yul\":1749:1784   */\n      eq\n        /* \"#utility.yul\":1739:1802   */\n      tag_217\n      jumpi\n        /* \"#utility.yul\":1798:1799   */\n      0x00\n        /* \"#utility.yul\":1795:1796   */\n      dup1\n        /* \"#utility.yul\":1788:1800   */\n      revert\n        /* \"#utility.yul\":1739:1802   */\n    tag_217:\n        /* \"#utility.yul\":1686:1808   */\n      pop\n      jump\t// out\n        /* \"#utility.yul\":1814:1953   */\n    tag_138:\n        /* \"#utility.yul\":1860:1865   */\n      0x00\n        /* \"#utility.yul\":1898:1904   */\n      dup2\n        /* \"#utility.yul\":1885:1905   */\n      calldataload\n        /* \"#utility.yul\":1876:1905   */\n      swap1\n      pop\n        /* \"#utility.yul\":1914:1947   */\n      tag_219\n        /* \"#utility.yul\":1941:1946   */\n      dup2\n        /* \"#utility.yul\":1914:1947   */\n      tag_137\n      jump\t// in\n    tag_219:\n        /* \"#utility.yul\":1814:1953   */\n      swap3\n      swap2\n      pop\n      pop\n      jump\t// out\n        /* \"#utility.yul\":1959:2288   */\n    tag_21:\n        /* \"#utility.yul\":2018:2024   */\n      0x00\n        /* \"#utility.yul\":2067:2069   */\n      0x20\n        /* \"#utility.yul\":2055:2064   */\n      dup3\n        /* \"#utility.yul\":2046:2053   */\n      dup5\n        /* \"#utility.yul\":2042:2065   */\n      sub\n        /* \"#utility.yul\":2038:2070   */\n      slt\n        /* \"#utility.yul\":2035:2154   */\n      iszero\n      tag_221\n      jumpi\n        /* \"#utility.yul\":2073:2152   */\n      tag_222\n      tag_128\n      jump\t// in\n    tag_222:\n        /* \"#utility.yul\":2035:2154   */\n    tag_221:\n        /* \"#utility.yul\":2193:2194   */\n      0x00\n        /* \"#utility.yul\":2218:2271   */\n      tag_223\n        /* \"#utility.yul\":2263:2270   */\n      dup5\n        /* \"#utility.yul\":2254:2260   */\n      dup3\n        /* \"#utility.yul\":2243:2252   */\n      dup6\n        /* \"#utility.yul\":2239:2261   */\n      add\n        /* \"#utility.yul\":2218:2271   */\n      tag_138\n      jump\t// in\n    tag_223:\n        /* \"#utility.yul\":2208:2271   */\n      swap2\n      pop\n        /* \"#utility.yul\":2164:2281   */\n      pop\n        /* \"#utility.yul\":1959:2288   */\n      swap3\n      swap2\n      pop\n      pop\n      jump\t// out\n        /* \"#utility.yul\":2294:2408   */\n    tag_139:\n        /* \"#utility.yul\":2361:2367   */\n      0x00\n        /* \"#utility.yul\":2395:2400   */\n      dup2\n        /* \"#utility.yul\":2389:2401   */\n      mload\n        /* \"#utility.yul\":2379:2401   */\n      swap1\n      pop\n        /* \"#utility.yul\":2294:2408   */\n      swap2\n      swap1\n      pop\n      jump\t// out\n        /* \"#utility.yul\":2414:2598   */\n    tag_140:\n        /* \"#utility.yul\":2513:2524   */\n      0x00\n        /* \"#utility.yul\":2547:2553   */\n      dup3\n        /* \"#utility.yul\":2542:2545   */\n      dup3\n        /* \"#utility.yul\":2535:2554   */\n      mstore\n        /* \"#utility.yul\":2587:2591   */\n      0x20\n        /* \"#utility.yul\":2582:2585   */\n      dup3\n        /* \"#utility.yul\":2578:2592   */\n      add\n        /* \"#utility.yul\":2563:2592   */\n      swap1\n      pop\n        /* \"#utility.yul\":2414:2598   */\n      swap3\n      swap2\n      pop\n      pop\n      jump\t// out\n        /* \"#utility.yul\":2604:2736   */\n    tag_141:\n        /* \"#utility.yul\":2671:2675   */\n      0x00\n        /* \"#utility.yul\":2694:2697   */\n      dup2\n        /* \"#utility.yul\":2686:2697   */\n      swap1\n      pop\n        /* \"#utility.yul\":2724:2728   */\n      0x20\n        /* \"#utility.yul\":2719:2722   */\n      dup3\n        /* \"#utility.yul\":2715:2729   */\n      add\n        /* \"#utility.yul\":2707:2729   */\n      swap1\n      pop\n        /* \"#utility.yul\":2604:2736   */\n      swap2\n      swap1\n      pop\n      jump\t// out\n        /* \"#utility.yul\":2742:2850   */\n    tag_142:\n        /* \"#utility.yul\":2819:2843   */\n      tag_228\n        /* \"#utility.yul\":2837:2842   */\n      dup2\n        /* \"#utility.yul\":2819:2843   */\n      tag_136\n      jump\t// in\n    tag_228:\n        /* \"#utility.yul\":2814:2817   */\n      dup3\n        /* \"#utility.yul\":2807:2844   */\n      mstore\n        /* \"#utility.yul\":2742:2850   */\n      pop\n      pop\n      jump\t// out\n        /* \"#utility.yul\":2856:3035   */\n    tag_143:\n        /* \"#utility.yul\":2925:2935   */\n      0x00\n        /* \"#utility.yul\":2946:2992   */\n      tag_230\n        /* \"#utility.yul\":2988:2991   */\n      dup4\n        /* \"#utility.yul\":2980:2986   */\n      dup4\n        /* \"#utility.yul\":2946:2992   */\n      tag_142\n      jump\t// in\n    tag_230:\n        /* \"#utility.yul\":3024:3028   */\n      0x20\n        /* \"#utility.yul\":3019:3022   */\n      dup4\n        /* \"#utility.yul\":3015:3029   */\n      add\n        /* \"#utility.yul\":3001:3029   */\n      swap1\n      pop\n        /* \"#utility.yul\":2856:3035   */\n      swap3\n      swap2\n      pop\n      pop\n      jump\t// out\n        /* \"#utility.yul\":3041:3154   */\n    tag_144:\n        /* \"#utility.yul\":3111:3115   */\n      0x00\n        /* \"#utility.yul\":3143:3147   */\n      0x20\n        /* \"#utility.yul\":3138:3141   */\n      dup3\n        /* \"#utility.yul\":3134:3148   */\n      add\n        /* \"#utility.yul\":3126:3148   */\n      swap1\n      pop\n        /* \"#utility.yul\":3041:3154   */\n      swap2\n      swap1\n      pop\n      jump\t// out\n        /* \"#utility.yul\":3190:3922   */\n    tag_145:\n        /* \"#utility.yul\":3309:3312   */\n      0x00\n        /* \"#utility.yul\":3338:3392   */\n      tag_233\n        /* \"#utility.yul\":3386:3391   */\n      dup3\n        /* \"#utility.yul\":3338:3392   */\n      tag_139\n      jump\t// in\n    tag_233:\n        /* \"#utility.yul\":3408:3494   */\n      tag_234\n        /* \"#utility.yul\":3487:3493   */\n      dup2\n        /* \"#utility.yul\":3482:3485   */\n      dup6\n        /* \"#utility.yul\":3408:3494   */\n      tag_140\n      jump\t// in\n    tag_234:\n        /* \"#utility.yul\":3401:3494   */\n      swap4\n      pop\n        /* \"#utility.yul\":3518:3574   */\n      tag_235\n        /* \"#utility.yul\":3568:3573   */\n      dup4\n        /* \"#utility.yul\":3518:3574   */\n      tag_141\n      jump\t// in\n    tag_235:\n        /* \"#utility.yul\":3597:3604   */\n      dup1\n        /* \"#utility.yul\":3628:3629   */\n      0x00\n        /* \"#utility.yul\":3613:3897   */\n    tag_236:\n        /* \"#utility.yul\":3638:3644   */\n      dup4\n        /* \"#utility.yul\":3635:3636   */\n      dup2\n        /* \"#utility.yul\":3632:3645   */\n      lt\n        /* \"#utility.yul\":3613:3897   */\n      iszero\n      tag_238\n      jumpi\n        /* \"#utility.yul\":3714:3720   */\n      dup2\n        /* \"#utility.yul\":3708:3721   */\n      mload\n        /* \"#utility.yul\":3741:3804   */\n      tag_239\n        /* \"#utility.yul\":3800:3803   */\n      dup9\n        /* \"#utility.yul\":3785:3798   */\n      dup3\n        /* \"#utility.yul\":3741:3804   */\n      tag_143\n      jump\t// in\n    tag_239:\n        /* \"#utility.yul\":3734:3804   */\n      swap8\n      pop\n        /* \"#utility.yul\":3827:3887   */\n      tag_240\n        /* \"#utility.yul\":3880:3886   */\n      dup4\n        /* \"#utility.yul\":3827:3887   */\n      tag_144\n      jump\t// in\n    tag_240:\n        /* \"#utility.yul\":3817:3887   */\n      swap3\n      pop\n        /* \"#utility.yul\":3673:3897   */\n      pop\n        /* \"#utility.yul\":3660:3661   */\n      0x01\n        /* \"#utility.yul\":3657:3658   */\n      dup2\n        /* \"#utility.yul\":3653:3662   */\n      add\n        /* \"#utility.yul\":3648:3662   */\n      swap1\n      pop\n        /* \"#utility.yul\":3613:3897   */\n      jump(tag_236)\n    tag_238:\n        /* \"#utility.yul\":3617:3631   */\n      pop\n        /* \"#utility.yul\":3913:3916   */\n      dup6\n        /* \"#utility.yul\":3906:3916   */\n      swap4\n      pop\n        /* \"#utility.yul\":3314:3922   */\n      pop\n      pop\n      pop\n        /* \"#utility.yul\":3190:3922   */\n      swap3\n      swap2\n      pop\n      pop\n      jump\t// out\n        /* \"#utility.yul\":3928:4301   */\n    tag_26:\n        /* \"#utility.yul\":4071:4075   */\n      0x00\n        /* \"#utility.yul\":4109:4111   */\n      0x20\n        /* \"#utility.yul\":4098:4107   */\n      dup3\n        /* \"#utility.yul\":4094:4112   */\n      add\n        /* \"#utility.yul\":4086:4112   */\n      swap1\n      pop\n        /* \"#utility.yul\":4158:4167   */\n      dup2\n        /* \"#utility.yul\":4152:4156   */\n      dup2\n        /* \"#utility.yul\":4148:4168   */\n      sub\n        /* \"#utility.yul\":4144:4145   */\n      0x00\n        /* \"#utility.yul\":4133:4142   */\n      dup4\n        /* \"#utility.yul\":4129:4146   */\n      add\n        /* \"#utility.yul\":4122:4169   */\n      mstore\n        /* \"#utility.yul\":4186:4294   */\n      tag_242\n        /* \"#utility.yul\":4289:4293   */\n      dup2\n        /* \"#utility.yul\":4280:4286   */\n      dup5\n        /* \"#utility.yul\":4186:4294   */\n      tag_145\n      jump\t// in\n    tag_242:\n        /* \"#utility.yul\":4178:4294   */\n      swap1\n      pop\n        /* \"#utility.yul\":3928:4301   */\n      swap3\n      swap2\n      pop\n      pop\n      jump\t// out\n        /* \"#utility.yul\":4307:4406   */\n    tag_146:\n        /* \"#utility.yul\":4359:4365   */\n      0x00\n        /* \"#utility.yul\":4393:4398   */\n      dup2\n        /* \"#utility.yul\":4387:4399   */\n      mload\n        /* \"#utility.yul\":4377:4399   */\n      swap1\n      pop\n        /* \"#utility.yul\":4307:4406   */\n      swap2\n      swap1\n      pop\n      jump\t// out\n        /* \"#utility.yul\":4412:4581   */\n    tag_147:\n        /* \"#utility.yul\":4496:4507   */\n      0x00\n        /* \"#utility.yul\":4530:4536   */\n      dup3\n        /* \"#utility.yul\":4525:4528   */\n      dup3\n        /* \"#utility.yul\":4518:4537   */\n      mstore\n        /* \"#utility.yul\":4570:4574   */\n      0x20\n        /* \"#utility.yul\":4565:4568   */\n      dup3\n        /* \"#utility.yul\":4561:4575   */\n      add\n        /* \"#utility.yul\":4546:4575   */\n      swap1\n      pop\n        /* \"#utility.yul\":4412:4581   */\n      swap3\n      swap2\n      pop\n      pop\n      jump\t// out\n        /* \"#utility.yul\":4587:4726   */\n    tag_148:\n        /* \"#utility.yul\":4676:4682   */\n      dup3\n        /* \"#utility.yul\":4671:4674   */\n      dup2\n        /* \"#utility.yul\":4666:4669   */\n      dup4\n        /* \"#utility.yul\":4660:4683   */\n      mcopy\n        /* \"#utility.yul\":4717:4718   */\n      0x00\n        /* \"#utility.yul\":4708:4714   */\n      dup4\n        /* \"#utility.yul\":4703:4706   */\n      dup4\n        /* \"#utility.yul\":4699:4715   */\n      add\n        /* \"#utility.yul\":4692:4719   */\n      mstore\n        /* \"#utility.yul\":4587:4726   */\n      pop\n      pop\n      pop\n      jump\t// out\n        /* \"#utility.yul\":4732:4834   */\n    tag_149:\n        /* \"#utility.yul\":4773:4779   */\n      0x00\n        /* \"#utility.yul\":4824:4826   */\n      0x1f\n        /* \"#utility.yul\":4820:4827   */\n      not\n        /* \"#utility.yul\":4815:4817   */\n      0x1f\n        /* \"#utility.yul\":4808:4813   */\n      dup4\n        /* \"#utility.yul\":4804:4818   */\n      add\n        /* \"#utility.yul\":4800:4828   */\n      and\n        /* \"#utility.yul\":4790:4828   */\n      swap1\n      pop\n        /* \"#utility.yul\":4732:4834   */\n      swap2\n      swap1\n      pop\n      jump\t// out\n        /* \"#utility.yul\":4840:5217   */\n    tag_150:\n        /* \"#utility.yul\":4928:4931   */\n      0x00\n        /* \"#utility.yul\":4956:4995   */\n      tag_248\n        /* \"#utility.yul\":4989:4994   */\n      dup3\n        /* \"#utility.yul\":4956:4995   */\n      tag_146\n      jump\t// in\n    tag_248:\n        /* \"#utility.yul\":5011:5082   */\n      tag_249\n        /* \"#utility.yul\":5075:5081   */\n      dup2\n        /* \"#utility.yul\":5070:5073   */\n      dup6\n        /* \"#utility.yul\":5011:5082   */\n      tag_147\n      jump\t// in\n    tag_249:\n        /* \"#utility.yul\":5004:5082   */\n      swap4\n      pop\n        /* \"#utility.yul\":5091:5156   */\n      tag_250\n        /* \"#utility.yul\":5149:5155   */\n      dup2\n        /* \"#utility.yul\":5144:5147   */\n      dup6\n        /* \"#utility.yul\":5137:5141   */\n      0x20\n        /* \"#utility.yul\":5130:5135   */\n      dup7\n        /* \"#utility.yul\":5126:5142   */\n      add\n        /* \"#utility.yul\":5091:5156   */\n      tag_148\n      jump\t// in\n    tag_250:\n        /* \"#utility.yul\":5181:5210   */\n      tag_251\n        /* \"#utility.yul\":5203:5209   */\n      dup2\n        /* \"#utility.yul\":5181:5210   */\n      tag_149\n      jump\t// in\n    tag_251:\n        /* \"#utility.yul\":5176:5179   */\n      dup5\n        /* \"#utility.yul\":5172:5211   */\n      add\n        /* \"#utility.yul\":5165:5211   */\n      swap2\n      pop\n        /* \"#utility.yul\":4932:5217   */\n      pop\n        /* \"#utility.yul\":4840:5217   */\n      swap3\n      swap2\n      pop\n      pop\n      jump\t// out\n        /* \"#utility.yul\":5223:5536   */\n    tag_31:\n        /* \"#utility.yul\":5336:5340   */\n      0x00\n        /* \"#utility.yul\":5374:5376   */\n      0x20\n        /* \"#utility.yul\":5363:5372   */\n      dup3\n        /* \"#utility.yul\":5359:5377   */\n      add\n        /* \"#utility.yul\":5351:5377   */\n      swap1\n      pop\n        /* \"#utility.yul\":5423:5432   */\n      dup2\n        /* \"#utility.yul\":5417:5421   */\n      dup2\n        /* \"#utility.yul\":5413:5433   */\n      sub\n        /* \"#utility.yul\":5409:5410   */\n      0x00\n        /* \"#utility.yul\":5398:5407   */\n      dup4\n        /* \"#utility.yul\":5394:5411   */\n      add\n        /* \"#utility.yul\":5387:5434   */\n      mstore\n        /* \"#utility.yul\":5451:5529   */\n      tag_253\n        /* \"#utility.yul\":5524:5528   */\n      dup2\n        /* \"#utility.yul\":5515:5521   */\n      dup5\n        /* \"#utility.yul\":5451:5529   */\n      tag_150\n      jump\t// in\n    tag_253:\n        /* \"#utility.yul\":5443:5529   */\n      swap1\n      pop\n        /* \"#utility.yul\":5223:5536   */\n      swap3\n      swap2\n      pop\n      pop\n      jump\t// out\n        /* \"#utility.yul\":5542:5660   */\n    tag_151:\n        /* \"#utility.yul\":5629:5653   */\n      tag_255\n        /* \"#utility.yul\":5647:5652   */\n      dup2\n        /* \"#utility.yul\":5629:5653   */\n      tag_136\n      jump\t// in\n    tag_255:\n        /* \"#utility.yul\":5624:5627   */\n      dup3\n        /* \"#utility.yul\":5617:5654   */\n      mstore\n        /* \"#utility.yul\":5542:5660   */\n      pop\n      pop\n      jump\t// out\n        /* \"#utility.yul\":5666:5888   */\n    tag_36:\n        /* \"#utility.yul\":5759:5763   */\n      0x00\n        /* \"#utility.yul\":5797:5799   */\n      0x20\n        /* \"#utility.yul\":5786:5795   */\n      dup3\n        /* \"#utility.yul\":5782:5800   */\n      add\n        /* \"#utility.yul\":5774:5800   */\n      swap1\n      pop\n        /* \"#utility.yul\":5810:5881   */\n      tag_257\n        /* \"#utility.yul\":5878:5879   */\n      0x00\n        /* \"#utility.yul\":5867:5876   */\n      dup4\n        /* \"#utility.yul\":5863:5880   */\n      add\n        /* \"#utility.yul\":5854:5860   */\n      dup5\n        /* \"#utility.yul\":5810:5881   */\n      tag_151\n      jump\t// in\n    tag_257:\n        /* \"#utility.yul\":5666:5888   */\n      swap3\n      swap2\n      pop\n      pop\n      jump\t// out\n        /* \"#utility.yul\":5894:6011   */\n    tag_152:\n        /* \"#utility.yul\":6003:6004   */\n      0x00\n        /* \"#utility.yul\":6000:6001   */\n      dup1\n        /* \"#utility.yul\":5993:6005   */\n      revert\n        /* \"#utility.yul\":6017:6134   */\n    tag_153:\n        /* \"#utility.yul\":6126:6127   */\n      0x00\n        /* \"#utility.yul\":6123:6124   */\n      dup1\n        /* \"#utility.yul\":6116:6128   */\n      revert\n        /* \"#utility.yul\":6140:6320   */\n    tag_82:\n        /* \"#utility.yul\":6188:6265   */\n      0x4e487b7100000000000000000000000000000000000000000000000000000000\n        /* \"#utility.yul\":6185:6186   */\n      0x00\n        /* \"#utility.yul\":6178:6266   */\n      mstore\n        /* \"#utility.yul\":6285:6289   */\n      0x41\n        /* \"#utility.yul\":6282:6283   */\n      0x04\n        /* \"#utility.yul\":6275:6290   */\n      mstore\n        /* \"#utility.yul\":6309:6313   */\n      0x24\n        /* \"#utility.yul\":6306:6307   */\n      0x00\n        /* \"#utility.yul\":6299:6314   */\n      revert\n        /* \"#utility.yul\":6326:6607   */\n    tag_154:\n        /* \"#utility.yul\":6409:6436   */\n      tag_262\n        /* \"#utility.yul\":6431:6435   */\n      dup3\n        /* \"#utility.yul\":6409:6436   */\n      tag_149\n      jump\t// in\n    tag_262:\n        /* \"#utility.yul\":6401:6407   */\n      dup2\n        /* \"#utility.yul\":6397:6437   */\n      add\n        /* \"#utility.yul\":6539:6545   */\n      dup2\n        /* \"#utility.yul\":6527:6537   */\n      dup2\n        /* \"#utility.yul\":6524:6546   */\n      lt\n        /* \"#utility.yul\":6503:6521   */\n      0xffffffffffffffff\n        /* \"#utility.yul\":6491:6501   */\n      dup3\n        /* \"#utility.yul\":6488:6522   */\n      gt\n        /* \"#utility.yul\":6485:6547   */\n      or\n        /* \"#utility.yul\":6482:6570   */\n      iszero\n      tag_263\n      jumpi\n        /* \"#utility.yul\":6550:6568   */\n      tag_264\n      tag_82\n      jump\t// in\n    tag_264:\n        /* \"#utility.yul\":6482:6570   */\n    tag_263:\n        /* \"#utility.yul\":6590:6600   */\n      dup1\n        /* \"#utility.yul\":6586:6588   */\n      0x40\n        /* \"#utility.yul\":6579:6601   */\n      mstore\n        /* \"#utility.yul\":6369:6607   */\n      pop\n        /* \"#utility.yul\":6326:6607   */\n      pop\n      pop\n      jump\t// out\n        /* \"#utility.yul\":6613:6742   */\n    tag_155:\n        /* \"#utility.yul\":6647:6653   */\n      0x00\n        /* \"#utility.yul\":6674:6694   */\n      tag_266\n      tag_127\n      jump\t// in\n    tag_266:\n        /* \"#utility.yul\":6664:6694   */\n      swap1\n      pop\n        /* \"#utility.yul\":6703:6736   */\n      tag_267\n        /* \"#utility.yul\":6731:6735   */\n      dup3\n        /* \"#utility.yul\":6723:6729   */\n      dup3\n        /* \"#utility.yul\":6703:6736   */\n      tag_154\n      jump\t// in\n    tag_267:\n        /* \"#utility.yul\":6613:6742   */\n      swap2\n      swap1\n      pop\n      jump\t// out\n        /* \"#utility.yul\":6748:7056   */\n    tag_156:\n        /* \"#utility.yul\":6810:6814   */\n      0x00\n        /* \"#utility.yul\":6900:6918   */\n      0xffffffffffffffff\n        /* \"#utility.yul\":6892:6898   */\n      dup3\n        /* \"#utility.yul\":6889:6919   */\n      gt\n        /* \"#utility.yul\":6886:6942   */\n      iszero\n      tag_269\n      jumpi\n        /* \"#utility.yul\":6922:6940   */\n      tag_270\n      tag_82\n      jump\t// in\n    tag_270:\n        /* \"#utility.yul\":6886:6942   */\n    tag_269:\n        /* \"#utility.yul\":6960:6989   */\n      tag_271\n        /* \"#utility.yul\":6982:6988   */\n      dup3\n        /* \"#utility.yul\":6960:6989   */\n      tag_149\n      jump\t// in\n    tag_271:\n        /* \"#utility.yul\":6952:6989   */\n      swap1\n      pop\n        /* \"#utility.yul\":7044:7048   */\n      0x20\n        /* \"#utility.yul\":7038:7042   */\n      dup2\n        /* \"#utility.yul\":7034:7049   */\n      add\n        /* \"#utility.yul\":7026:7049   */\n      swap1\n      pop\n        /* \"#utility.yul\":6748:7056   */\n      swap2\n      swap1\n      pop\n      jump\t// out\n        /* \"#utility.yul\":7062:7210   */\n    tag_157:\n        /* \"#utility.yul\":7160:7166   */\n      dup3\n        /* \"#utility.yul\":7155:7158   */\n      dup2\n        /* \"#utility.yul\":7150:7153   */\n      dup4\n        /* \"#utility.yul\":7137:7167   */\n      calldatacopy\n        /* \"#utility.yul\":7201:7202   */\n      0x00\n        /* \"#utility.yul\":7192:7198   */\n      dup4\n        /* \"#utility.yul\":7187:7190   */\n      dup4\n        /* \"#utility.yul\":7183:7199   */\n      add\n        /* \"#utility.yul\":7176:7203   */\n      mstore\n        /* \"#utility.yul\":7062:7210   */\n      pop\n      pop\n      pop\n      jump\t// out\n        /* \"#utility.yul\":7216:7641   */\n    tag_158:\n        /* \"#utility.yul\":7294:7299   */\n      0x00\n        /* \"#utility.yul\":7319:7385   */\n      tag_274\n        /* \"#utility.yul\":7335:7384   */\n      tag_275\n        /* \"#utility.yul\":7377:7383   */\n      dup5\n        /* \"#utility.yul\":7335:7384   */\n      tag_156\n      jump\t// in\n    tag_275:\n        /* \"#utility.yul\":7319:7385   */\n      tag_155\n      jump\t// in\n    tag_274:\n        /* \"#utility.yul\":7310:7385   */\n      swap1\n      pop\n        /* \"#utility.yul\":7408:7414   */\n      dup3\n        /* \"#utility.yul\":7401:7406   */\n      dup2\n        /* \"#utility.yul\":7394:7415   */\n      mstore\n        /* \"#utility.yul\":7446:7450   */\n      0x20\n        /* \"#utility.yul\":7439:7444   */\n      dup2\n        /* \"#utility.yul\":7435:7451   */\n      add\n        /* \"#utility.yul\":7484:7487   */\n      dup5\n        /* \"#utility.yul\":7475:7481   */\n      dup5\n        /* \"#utility.yul\":7470:7473   */\n      dup5\n        /* \"#utility.yul\":7466:7482   */\n      add\n        /* \"#utility.yul\":7463:7488   */\n      gt\n        /* \"#utility.yul\":7460:7572   */\n      iszero\n      tag_276\n      jumpi\n        /* \"#utility.yul\":7491:7570   */\n      tag_277\n      tag_153\n      jump\t// in\n    tag_277:\n        /* \"#utility.yul\":7460:7572   */\n    tag_276:\n        /* \"#utility.yul\":7581:7635   */\n      tag_278\n        /* \"#utility.yul\":7628:7634   */\n      dup5\n        /* \"#utility.yul\":7623:7626   */\n      dup3\n        /* \"#utility.yul\":7618:7621   */\n      dup6\n        /* \"#utility.yul\":7581:7635   */\n      tag_157\n      jump\t// in\n    tag_278:\n        /* \"#utility.yul\":7300:7641   */\n      pop\n        /* \"#utility.yul\":7216:7641   */\n      swap4\n      swap3\n      pop\n      pop\n      pop\n      jump\t// out\n        /* \"#utility.yul\":7661:8001   */\n    tag_159:\n        /* \"#utility.yul\":7717:7722   */\n      0x00\n        /* \"#utility.yul\":7766:7769   */\n      dup3\n        /* \"#utility.yul\":7759:7763   */\n      0x1f\n        /* \"#utility.yul\":7751:7757   */\n      dup4\n        /* \"#utility.yul\":7747:7764   */\n      add\n        /* \"#utility.yul\":7743:7770   */\n      slt\n        /* \"#utility.yul\":7733:7855   */\n      tag_280\n      jumpi\n        /* \"#utility.yul\":7774:7853   */\n      tag_281\n      tag_152\n      jump\t// in\n    tag_281:\n        /* \"#utility.yul\":7733:7855   */\n    tag_280:\n        /* \"#utility.yul\":7891:7897   */\n      dup2\n        /* \"#utility.yul\":7878:7898   */\n      calldataload\n        /* \"#utility.yul\":7916:7995   */\n      tag_282\n        /* \"#utility.yul\":7991:7994   */\n      dup5\n        /* \"#utility.yul\":7983:7989   */\n      dup3\n        /* \"#utility.yul\":7976:7980   */\n      0x20\n        /* \"#utility.yul\":7968:7974   */\n      dup7\n        /* \"#utility.yul\":7964:7981   */\n      add\n        /* \"#utility.yul\":7916:7995   */\n      tag_158\n      jump\t// in\n    tag_282:\n        /* \"#utility.yul\":7907:7995   */\n      swap2\n      pop\n        /* \"#utility.yul\":7723:8001   */\n      pop\n        /* \"#utility.yul\":7661:8001   */\n      swap3\n      swap2\n      pop\n      pop\n      jump\t// out\n        /* \"#utility.yul\":8007:8516   */\n    tag_42:\n        /* \"#utility.yul\":8076:8082   */\n      0x00\n        /* \"#utility.yul\":8125:8127   */\n      0x20\n        /* \"#utility.yul\":8113:8122   */\n      dup3\n        /* \"#utility.yul\":8104:8111   */\n      dup5\n        /* \"#utility.yul\":8100:8123   */\n      sub\n        /* \"#utility.yul\":8096:8128   */\n      slt\n        /* \"#utility.yul\":8093:8212   */\n      iszero\n      tag_284\n      jumpi\n        /* \"#utility.yul\":8131:8210   */\n      tag_285\n      tag_128\n      jump\t// in\n    tag_285:\n        /* \"#utility.yul\":8093:8212   */\n    tag_284:\n        /* \"#utility.yul\":8279:8280   */\n      0x00\n        /* \"#utility.yul\":8268:8277   */\n      dup3\n        /* \"#utility.yul\":8264:8281   */\n      add\n        /* \"#utility.yul\":8251:8282   */\n      calldataload\n        /* \"#utility.yul\":8309:8327   */\n      0xffffffffffffffff\n        /* \"#utility.yul\":8301:8307   */\n      dup2\n        /* \"#utility.yul\":8298:8328   */\n      gt\n        /* \"#utility.yul\":8295:8412   */\n      iszero\n      tag_286\n      jumpi\n        /* \"#utility.yul\":8331:8410   */\n      tag_287\n      tag_129\n      jump\t// in\n    tag_287:\n        /* \"#utility.yul\":8295:8412   */\n    tag_286:\n        /* \"#utility.yul\":8436:8499   */\n      tag_288\n        /* \"#utility.yul\":8491:8498   */\n      dup5\n        /* \"#utility.yul\":8482:8488   */\n      dup3\n        /* \"#utility.yul\":8471:8480   */\n      dup6\n        /* \"#utility.yul\":8467:8489   */\n      add\n        /* \"#utility.yul\":8436:8499   */\n      tag_159\n      jump\t// in\n    tag_288:\n        /* \"#utility.yul\":8426:8499   */\n      swap2\n      pop\n        /* \"#utility.yul\":8222:8509   */\n      pop\n        /* \"#utility.yul\":8007:8516   */\n      swap3\n      swap2\n      pop\n      pop\n      jump\t// out\n        /* \"#utility.yul\":8522:8646   */\n    tag_160:\n        /* \"#utility.yul\":8599:8605   */\n      0x00\n        /* \"#utility.yul\":8633:8638   */\n      dup2\n        /* \"#utility.yul\":8627:8639   */\n      mload\n        /* \"#utility.yul\":8617:8639   */\n      swap1\n      pop\n        /* \"#utility.yul\":8522:8646   */\n      swap2\n      swap1\n      pop\n      jump\t// out\n        /* \"#utility.yul\":8652:8846   */\n    tag_161:\n        /* \"#utility.yul\":8761:8772   */\n      0x00\n        /* \"#utility.yul\":8795:8801   */\n      dup3\n        /* \"#utility.yul\":8790:8793   */\n      dup3\n        /* \"#utility.yul\":8783:8802   */\n      mstore\n        /* \"#utility.yul\":8835:8839   */\n      0x20\n        /* \"#utility.yul\":8830:8833   */\n      dup3\n        /* \"#utility.yul\":8826:8840   */\n      add\n        /* \"#utility.yul\":8811:8840   */\n      swap1\n      pop\n        /* \"#utility.yul\":8652:8846   */\n      swap3\n      swap2\n      pop\n      pop\n      jump\t// out\n        /* \"#utility.yul\":8852:8994   */\n    tag_162:\n        /* \"#utility.yul\":8929:8933   */\n      0x00\n        /* \"#utility.yul\":8952:8955   */\n      dup2\n        /* \"#utility.yul\":8944:8955   */\n      swap1\n      pop\n        /* \"#utility.yul\":8982:8986   */\n      0x20\n        /* \"#utility.yul\":8977:8980   */\n      dup3\n        /* \"#utility.yul\":8973:8987   */\n      add\n        /* \"#utility.yul\":8965:8987   */\n      swap1\n      pop\n        /* \"#utility.yul\":8852:8994   */\n      swap2\n      swap1\n      pop\n      jump\t// out\n        /* \"#utility.yul\":9000:9159   */\n    tag_163:\n        /* \"#utility.yul\":9074:9085   */\n      0x00\n        /* \"#utility.yul\":9108:9114   */\n      dup3\n        /* \"#utility.yul\":9103:9106   */\n      dup3\n        /* \"#utility.yul\":9096:9115   */\n      mstore\n        /* \"#utility.yul\":9148:9152   */\n      0x20\n        /* \"#utility.yul\":9143:9146   */\n      dup3\n        /* \"#utility.yul\":9139:9153   */\n      add\n        /* \"#utility.yul\":9124:9153   */\n      swap1\n      pop\n        /* \"#utility.yul\":9000:9159   */\n      swap3\n      swap2\n      pop\n      pop\n      jump\t// out\n        /* \"#utility.yul\":9165:9522   */\n    tag_164:\n        /* \"#utility.yul\":9243:9246   */\n      0x00\n        /* \"#utility.yul\":9271:9310   */\n      tag_294\n        /* \"#utility.yul\":9304:9309   */\n      dup3\n        /* \"#utility.yul\":9271:9310   */\n      tag_146\n      jump\t// in\n    tag_294:\n        /* \"#utility.yul\":9326:9387   */\n      tag_295\n        /* \"#utility.yul\":9380:9386   */\n      dup2\n        /* \"#utility.yul\":9375:9378   */\n      dup6\n        /* \"#utility.yul\":9326:9387   */\n      tag_163\n      jump\t// in\n    tag_295:\n        /* \"#utility.yul\":9319:9387   */\n      swap4\n      pop\n        /* \"#utility.yul\":9396:9461   */\n      tag_296\n        /* \"#utility.yul\":9454:9460   */\n      dup2\n        /* \"#utility.yul\":9449:9452   */\n      dup6\n        /* \"#utility.yul\":9442:9446   */\n      0x20\n        /* \"#utility.yul\":9435:9440   */\n      dup7\n        /* \"#utility.yul\":9431:9447   */\n      add\n        /* \"#utility.yul\":9396:9461   */\n      tag_148\n      jump\t// in\n    tag_296:\n        /* \"#utility.yul\":9486:9515   */\n      tag_297\n        /* \"#utility.yul\":9508:9514   */\n      dup2\n        /* \"#utility.yul\":9486:9515   */\n      tag_149\n      jump\t// in\n    tag_297:\n        /* \"#utility.yul\":9481:9484   */\n      dup5\n        /* \"#utility.yul\":9477:9516   */\n      add\n        /* \"#utility.yul\":9470:9516   */\n      swap2\n      pop\n        /* \"#utility.yul\":9247:9522   */\n      pop\n        /* \"#utility.yul\":9165:9522   */\n      swap3\n      swap2\n      pop\n      pop\n      jump\t// out\n        /* \"#utility.yul\":9528:9724   */\n    tag_165:\n        /* \"#utility.yul\":9617:9627   */\n      0x00\n        /* \"#utility.yul\":9652:9718   */\n      tag_299\n        /* \"#utility.yul\":9714:9717   */\n      dup4\n        /* \"#utility.yul\":9706:9712   */\n      dup4\n        /* \"#utility.yul\":9652:9718   */\n      tag_164\n      jump\t// in\n    tag_299:\n        /* \"#utility.yul\":9638:9718   */\n      swap1\n      pop\n        /* \"#utility.yul\":9528:9724   */\n      swap3\n      swap2\n      pop\n      pop\n      jump\t// out\n        /* \"#utility.yul\":9730:9853   */\n    tag_166:\n        /* \"#utility.yul\":9810:9814   */\n      0x00\n        /* \"#utility.yul\":9842:9846   */\n      0x20\n        /* \"#utility.yul\":9837:9840   */\n      dup3\n        /* \"#utility.yul\":9833:9847   */\n      add\n        /* \"#utility.yul\":9825:9847   */\n      swap1\n      pop\n        /* \"#utility.yul\":9730:9853   */\n      swap2\n      swap1\n      pop\n      jump\t// out\n        /* \"#utility.yul\":9887:10878   */\n    tag_167:\n        /* \"#utility.yul\":10026:10029   */\n      0x00\n        /* \"#utility.yul\":10055:10119   */\n      tag_302\n        /* \"#utility.yul\":10113:10118   */\n      dup3\n        /* \"#utility.yul\":10055:10119   */\n      tag_160\n      jump\t// in\n    tag_302:\n        /* \"#utility.yul\":10135:10231   */\n      tag_303\n        /* \"#utility.yul\":10224:10230   */\n      dup2\n        /* \"#utility.yul\":10219:10222   */\n      dup6\n        /* \"#utility.yul\":10135:10231   */\n      tag_161\n      jump\t// in\n    tag_303:\n        /* \"#utility.yul\":10128:10231   */\n      swap4\n      pop\n        /* \"#utility.yul\":10257:10260   */\n      dup4\n        /* \"#utility.yul\":10302:10306   */\n      0x20\n        /* \"#utility.yul\":10294:10300   */\n      dup3\n        /* \"#utility.yul\":10290:10307   */\n      mul\n        /* \"#utility.yul\":10285:10288   */\n      dup6\n        /* \"#utility.yul\":10281:10308   */\n      add\n        /* \"#utility.yul\":10332:10398   */\n      tag_304\n        /* \"#utility.yul\":10392:10397   */\n      dup6\n        /* \"#utility.yul\":10332:10398   */\n      tag_162\n      jump\t// in\n    tag_304:\n        /* \"#utility.yul\":10421:10428   */\n      dup1\n        /* \"#utility.yul\":10452:10453   */\n      0x00\n        /* \"#utility.yul\":10437:10833   */\n    tag_305:\n        /* \"#utility.yul\":10462:10468   */\n      dup6\n        /* \"#utility.yul\":10459:10460   */\n      dup2\n        /* \"#utility.yul\":10456:10469   */\n      lt\n        /* \"#utility.yul\":10437:10833   */\n      iszero\n      tag_307\n      jumpi\n        /* \"#utility.yul\":10533:10542   */\n      dup5\n        /* \"#utility.yul\":10527:10531   */\n      dup5\n        /* \"#utility.yul\":10523:10543   */\n      sub\n        /* \"#utility.yul\":10518:10521   */\n      dup10\n        /* \"#utility.yul\":10511:10544   */\n      mstore\n        /* \"#utility.yul\":10584:10590   */\n      dup2\n        /* \"#utility.yul\":10578:10591   */\n      mload\n        /* \"#utility.yul\":10612:10696   */\n      tag_308\n        /* \"#utility.yul\":10691:10695   */\n      dup6\n        /* \"#utility.yul\":10676:10689   */\n      dup3\n        /* \"#utility.yul\":10612:10696   */\n      tag_165\n      jump\t// in\n    tag_308:\n        /* \"#utility.yul\":10604:10696   */\n      swap5\n      pop\n        /* \"#utility.yul\":10719:10789   */\n      tag_309\n        /* \"#utility.yul\":10782:10788   */\n      dup4\n        /* \"#utility.yul\":10719:10789   */\n      tag_166\n      jump\t// in\n    tag_309:\n        /* \"#utility.yul\":10709:10789   */\n      swap3\n      pop\n        /* \"#utility.yul\":10818:10822   */\n      0x20\n        /* \"#utility.yul\":10813:10816   */\n      dup11\n        /* \"#utility.yul\":10809:10823   */\n      add\n        /* \"#utility.yul\":10802:10823   */\n      swap10\n      pop\n        /* \"#utility.yul\":10497:10833   */\n      pop\n        /* \"#utility.yul\":10484:10485   */\n      0x01\n        /* \"#utility.yul\":10481:10482   */\n      dup2\n        /* \"#utility.yul\":10477:10486   */\n      add\n        /* \"#utility.yul\":10472:10486   */\n      swap1\n      pop\n        /* \"#utility.yul\":10437:10833   */\n      jump(tag_305)\n    tag_307:\n        /* \"#utility.yul\":10441:10455   */\n      pop\n        /* \"#utility.yul\":10849:10853   */\n      dup3\n        /* \"#utility.yul\":10842:10853   */\n      swap8\n      pop\n        /* \"#utility.yul\":10869:10872   */\n      dup8\n        /* \"#utility.yul\":10862:10872   */\n      swap6\n      pop\n        /* \"#utility.yul\":10031:10878   */\n      pop\n      pop\n      pop\n      pop\n      pop\n        /* \"#utility.yul\":9887:10878   */\n      swap3\n      swap2\n      pop\n      pop\n      jump\t// out\n        /* \"#utility.yul\":10884:11297   */\n    tag_47:\n        /* \"#utility.yul\":11047:11051   */\n      0x00\n        /* \"#utility.yul\":11085:11087   */\n      0x20\n        /* \"#utility.yul\":11074:11083   */\n      dup3\n        /* \"#utility.yul\":11070:11088   */\n      add\n        /* \"#utility.yul\":11062:11088   */\n      swap1\n      pop\n        /* \"#utility.yul\":11134:11143   */\n      dup2\n        /* \"#utility.yul\":11128:11132   */\n      dup2\n        /* \"#utility.yul\":11124:11144   */\n      sub\n        /* \"#utility.yul\":11120:11121   */\n      0x00\n        /* \"#utility.yul\":11109:11118   */\n      dup4\n        /* \"#utility.yul\":11105:11122   */\n      add\n        /* \"#utility.yul\":11098:11145   */\n      mstore\n        /* \"#utility.yul\":11162:11290   */\n      tag_311\n        /* \"#utility.yul\":11285:11289   */\n      dup2\n        /* \"#utility.yul\":11276:11282   */\n      dup5\n        /* \"#utility.yul\":11162:11290   */\n      tag_167\n      jump\t// in\n    tag_311:\n        /* \"#utility.yul\":11154:11290   */\n      swap1\n      pop\n        /* \"#utility.yul\":10884:11297   */\n      swap3\n      swap2\n      pop\n      pop\n      jump\t// out\n        /* \"#utility.yul\":11303:11479   */\n    tag_168:\n        /* \"#utility.yul\":11443:11471   */\n      0x4e69657072617769646c6f777920696e64656b73206f70636a69000000000000\n        /* \"#utility.yul\":11439:11440   */\n      0x00\n        /* \"#utility.yul\":11431:11437   */\n      dup3\n        /* \"#utility.yul\":11427:11441   */\n      add\n        /* \"#utility.yul\":11420:11472   */\n      mstore\n        /* \"#utility.yul\":11303:11479   */\n      pop\n      jump\t// out\n        /* \"#utility.yul\":11485:11851   */\n    tag_169:\n        /* \"#utility.yul\":11627:11630   */\n      0x00\n        /* \"#utility.yul\":11648:11715   */\n      tag_314\n        /* \"#utility.yul\":11712:11714   */\n      0x1a\n        /* \"#utility.yul\":11707:11710   */\n      dup4\n        /* \"#utility.yul\":11648:11715   */\n      tag_147\n      jump\t// in\n    tag_314:\n        /* \"#utility.yul\":11641:11715   */\n      swap2\n      pop\n        /* \"#utility.yul\":11724:11817   */\n      tag_315\n        /* \"#utility.yul\":11813:11816   */\n      dup3\n        /* \"#utility.yul\":11724:11817   */\n      tag_168\n      jump\t// in\n    tag_315:\n        /* \"#utility.yul\":11842:11844   */\n      0x20\n        /* \"#utility.yul\":11837:11840   */\n      dup3\n        /* \"#utility.yul\":11833:11845   */\n      add\n        /* \"#utility.yul\":11826:11845   */\n      swap1\n      pop\n        /* \"#utility.yul\":11485:11851   */\n      swap2\n      swap1\n      pop\n      jump\t// out\n        /* \"#utility.yul\":11857:12276   */\n    tag_54:\n        /* \"#utility.yul\":12023:12027   */\n      0x00\n        /* \"#utility.yul\":12061:12063   */\n      0x20\n        /* \"#utility.yul\":12050:12059   */\n      dup3\n        /* \"#utility.yul\":12046:12064   */\n      add\n        /* \"#utility.yul\":12038:12064   */\n      swap1\n      pop\n        /* \"#utility.yul\":12110:12119   */\n      dup2\n        /* \"#utility.yul\":12104:12108   */\n      dup2\n        /* \"#utility.yul\":12100:12120   */\n      sub\n        /* \"#utility.yul\":12096:12097   */\n      0x00\n        /* \"#utility.yul\":12085:12094   */\n      dup4\n        /* \"#utility.yul\":12081:12098   */\n      add\n        /* \"#utility.yul\":12074:12121   */\n      mstore\n        /* \"#utility.yul\":12138:12269   */\n      tag_317\n        /* \"#utility.yul\":12264:12268   */\n      dup2\n        /* \"#utility.yul\":12138:12269   */\n      tag_169\n      jump\t// in\n    tag_317:\n        /* \"#utility.yul\":12130:12269   */\n      swap1\n      pop\n        /* \"#utility.yul\":11857:12276   */\n      swap2\n      swap1\n      pop\n      jump\t// out\n        /* \"#utility.yul\":12282:12462   */\n    tag_170:\n        /* \"#utility.yul\":12330:12407   */\n      0x4e487b7100000000000000000000000000000000000000000000000000000000\n        /* \"#utility.yul\":12327:12328   */\n      0x00\n        /* \"#utility.yul\":12320:12408   */\n      mstore\n        /* \"#utility.yul\":12427:12431   */\n      0x11\n        /* \"#utility.yul\":12424:12425   */\n      0x04\n        /* \"#utility.yul\":12417:12432   */\n      mstore\n        /* \"#utility.yul\":12451:12455   */\n      0x24\n        /* \"#utility.yul\":12448:12449   */\n      0x00\n        /* \"#utility.yul\":12441:12456   */\n      revert\n        /* \"#utility.yul\":12468:12662   */\n    tag_59:\n        /* \"#utility.yul\":12508:12512   */\n      0x00\n        /* \"#utility.yul\":12528:12548   */\n      tag_320\n        /* \"#utility.yul\":12546:12547   */\n      dup3\n        /* \"#utility.yul\":12528:12548   */\n      tag_136\n      jump\t// in\n    tag_320:\n        /* \"#utility.yul\":12523:12548   */\n      swap2\n      pop\n        /* \"#utility.yul\":12562:12582   */\n      tag_321\n        /* \"#utility.yul\":12580:12581   */\n      dup4\n        /* \"#utility.yul\":12562:12582   */\n      tag_136\n      jump\t// in\n    tag_321:\n        /* \"#utility.yul\":12557:12582   */\n      swap3\n      pop\n        /* \"#utility.yul\":12606:12607   */\n      dup3\n        /* \"#utility.yul\":12603:12604   */\n      dup3\n        /* \"#utility.yul\":12599:12608   */\n      sub\n        /* \"#utility.yul\":12591:12608   */\n      swap1\n      pop\n        /* \"#utility.yul\":12630:12631   */\n      dup2\n        /* \"#utility.yul\":12624:12628   */\n      dup2\n        /* \"#utility.yul\":12621:12632   */\n      gt\n        /* \"#utility.yul\":12618:12655   */\n      iszero\n      tag_322\n      jumpi\n        /* \"#utility.yul\":12635:12653   */\n      tag_323\n      tag_170\n      jump\t// in\n    tag_323:\n        /* \"#utility.yul\":12618:12655   */\n    tag_322:\n        /* \"#utility.yul\":12468:12662   */\n      swap3\n      swap2\n      pop\n      pop\n      jump\t// out\n        /* \"#utility.yul\":12668:12859   */\n    tag_61:\n        /* \"#utility.yul\":12708:12711   */\n      0x00\n        /* \"#utility.yul\":12727:12747   */\n      tag_325\n        /* \"#utility.yul\":12745:12746   */\n      dup3\n        /* \"#utility.yul\":12727:12747   */\n      tag_136\n      jump\t// in\n    tag_325:\n        /* \"#utility.yul\":12722:12747   */\n      swap2\n      pop\n        /* \"#utility.yul\":12761:12781   */\n      tag_326\n        /* \"#utility.yul\":12779:12780   */\n      dup4\n        /* \"#utility.yul\":12761:12781   */\n      tag_136\n      jump\t// in\n    tag_326:\n        /* \"#utility.yul\":12756:12781   */\n      swap3\n      pop\n        /* \"#utility.yul\":12804:12805   */\n      dup3\n        /* \"#utility.yul\":12801:12802   */\n      dup3\n        /* \"#utility.yul\":12797:12806   */\n      add\n        /* \"#utility.yul\":12790:12806   */\n      swap1\n      pop\n        /* \"#utility.yul\":12825:12828   */\n      dup1\n        /* \"#utility.yul\":12822:12823   */\n      dup3\n        /* \"#utility.yul\":12819:12829   */\n      gt\n        /* \"#utility.yul\":12816:12852   */\n      iszero\n      tag_327\n      jumpi\n        /* \"#utility.yul\":12832:12850   */\n      tag_328\n      tag_170\n      jump\t// in\n    tag_328:\n        /* \"#utility.yul\":12816:12852   */\n    tag_327:\n        /* \"#utility.yul\":12668:12859   */\n      swap3\n      swap2\n      pop\n      pop\n      jump\t// out\n        /* \"#utility.yul\":12865:13045   */\n    tag_64:\n        /* \"#utility.yul\":12913:12990   */\n      0x4e487b7100000000000000000000000000000000000000000000000000000000\n        /* \"#utility.yul\":12910:12911   */\n      0x00\n        /* \"#utility.yul\":12903:12991   */\n      mstore\n        /* \"#utility.yul\":13010:13014   */\n      0x32\n        /* \"#utility.yul\":13007:13008   */\n      0x04\n        /* \"#utility.yul\":13000:13015   */\n      mstore\n        /* \"#utility.yul\":13034:13038   */\n      0x24\n        /* \"#utility.yul\":13031:13032   */\n      0x00\n        /* \"#utility.yul\":13024:13039   */\n      revert\n        /* \"#utility.yul\":13051:13231   */\n    tag_171:\n        /* \"#utility.yul\":13099:13176   */\n      0x4e487b7100000000000000000000000000000000000000000000000000000000\n        /* \"#utility.yul\":13096:13097   */\n      0x00\n        /* \"#utility.yul\":13089:13177   */\n      mstore\n        /* \"#utility.yul\":13196:13200   */\n      0x22\n        /* \"#utility.yul\":13193:13194   */\n      0x04\n        /* \"#utility.yul\":13186:13201   */\n      mstore\n        /* \"#utility.yul\":13220:13224   */\n      0x24\n        /* \"#utility.yul\":13217:13218   */\n      0x00\n        /* \"#utility.yul\":13210:13225   */\n      revert\n        /* \"#utility.yul\":13237:13557   */\n    tag_92:\n        /* \"#utility.yul\":13281:13287   */\n      0x00\n        /* \"#utility.yul\":13318:13319   */\n      0x02\n        /* \"#utility.yul\":13312:13316   */\n      dup3\n        /* \"#utility.yul\":13308:13320   */\n      div\n        /* \"#utility.yul\":13298:13320   */\n      swap1\n      pop\n        /* \"#utility.yul\":13365:13366   */\n      0x01\n        /* \"#utility.yul\":13359:13363   */\n      dup3\n        /* \"#utility.yul\":13355:13367   */\n      and\n        /* \"#utility.yul\":13386:13404   */\n      dup1\n        /* \"#utility.yul\":13376:13457   */\n      tag_332\n      jumpi\n        /* \"#utility.yul\":13442:13446   */\n      0x7f\n        /* \"#utility.yul\":13434:13440   */\n      dup3\n        /* \"#utility.yul\":13430:13447   */\n      and\n        /* \"#utility.yul\":13420:13447   */\n      swap2\n      pop\n        /* \"#utility.yul\":13376:13457   */\n    tag_332:\n        /* \"#utility.yul\":13504:13506   */\n      0x20\n        /* \"#utility.yul\":13496:13502   */\n      dup3\n        /* \"#utility.yul\":13493:13507   */\n      lt\n        /* \"#utility.yul\":13473:13491   */\n      dup2\n        /* \"#utility.yul\":13470:13508   */\n      sub\n        /* \"#utility.yul\":13467:13551   */\n      tag_333\n      jumpi\n        /* \"#utility.yul\":13523:13541   */\n      tag_334\n      tag_171\n      jump\t// in\n    tag_334:\n        /* \"#utility.yul\":13467:13551   */\n    tag_333:\n        /* \"#utility.yul\":13288:13557   */\n      pop\n        /* \"#utility.yul\":13237:13557   */\n      swap2\n      swap1\n      pop\n      jump\t// out\n        /* \"#utility.yul\":13563:13716   */\n    tag_172:\n        /* \"#utility.yul\":13616:13622   */\n      0x00\n        /* \"#utility.yul\":13650:13655   */\n      dup2\n        /* \"#utility.yul\":13644:13656   */\n      sload\n        /* \"#utility.yul\":13634:13656   */\n      swap1\n      pop\n        /* \"#utility.yul\":13676:13709   */\n      tag_336\n        /* \"#utility.yul\":13702:13708   */\n      dup2\n        /* \"#utility.yul\":13676:13709   */\n      tag_92\n      jump\t// in\n    tag_336:\n        /* \"#utility.yul\":13666:13709   */\n      swap1\n      pop\n        /* \"#utility.yul\":13563:13716   */\n      swap2\n      swap1\n      pop\n      jump\t// out\n        /* \"#utility.yul\":13722:13863   */\n    tag_173:\n        /* \"#utility.yul\":13771:13775   */\n      0x00\n        /* \"#utility.yul\":13794:13797   */\n      dup2\n        /* \"#utility.yul\":13786:13797   */\n      swap1\n      pop\n        /* \"#utility.yul\":13817:13820   */\n      dup2\n        /* \"#utility.yul\":13814:13815   */\n      0x00\n        /* \"#utility.yul\":13807:13821   */\n      mstore\n        /* \"#utility.yul\":13851:13855   */\n      0x20\n        /* \"#utility.yul\":13848:13849   */\n      0x00\n        /* \"#utility.yul\":13838:13856   */\n      keccak256\n        /* \"#utility.yul\":13830:13856   */\n      swap1\n      pop\n        /* \"#utility.yul\":13722:13863   */\n      swap2\n      swap1\n      pop\n      jump\t// out\n        /* \"#utility.yul\":13869:14014   */\n    tag_174:\n        /* \"#utility.yul\":13922:13926   */\n      0x00\n        /* \"#utility.yul\":13945:13948   */\n      dup2\n        /* \"#utility.yul\":13937:13948   */\n      swap1\n      pop\n        /* \"#utility.yul\":13968:13971   */\n      dup2\n        /* \"#utility.yul\":13965:13966   */\n      0x00\n        /* \"#utility.yul\":13958:13972   */\n      mstore\n        /* \"#utility.yul\":14002:14006   */\n      0x20\n        /* \"#utility.yul\":13999:14000   */\n      0x00\n        /* \"#utility.yul\":13989:14007   */\n      keccak256\n        /* \"#utility.yul\":13981:14007   */\n      swap1\n      pop\n        /* \"#utility.yul\":13869:14014   */\n      swap2\n      swap1\n      pop\n      jump\t// out\n        /* \"#utility.yul\":14020:14113   */\n    tag_175:\n        /* \"#utility.yul\":14057:14063   */\n      0x00\n        /* \"#utility.yul\":14104:14106   */\n      0x20\n        /* \"#utility.yul\":14099:14101   */\n      0x1f\n        /* \"#utility.yul\":14092:14097   */\n      dup4\n        /* \"#utility.yul\":14088:14102   */\n      add\n        /* \"#utility.yul\":14084:14107   */\n      div\n        /* \"#utility.yul\":14074:14107   */\n      swap1\n      pop\n        /* \"#utility.yul\":14020:14113   */\n      swap2\n      swap1\n      pop\n      jump\t// out\n        /* \"#utility.yul\":14119:14226   */\n    tag_176:\n        /* \"#utility.yul\":14163:14171   */\n      0x00\n        /* \"#utility.yul\":14213:14218   */\n      dup3\n        /* \"#utility.yul\":14207:14211   */\n      dup3\n        /* \"#utility.yul\":14203:14219   */\n      shl\n        /* \"#utility.yul\":14182:14219   */\n      swap1\n      pop\n        /* \"#utility.yul\":14119:14226   */\n      swap3\n      swap2\n      pop\n      pop\n      jump\t// out\n        /* \"#utility.yul\":14232:14625   */\n    tag_177:\n        /* \"#utility.yul\":14301:14307   */\n      0x00\n        /* \"#utility.yul\":14351:14352   */\n      0x08\n        /* \"#utility.yul\":14339:14349   */\n      dup4\n        /* \"#utility.yul\":14335:14353   */\n      mul\n        /* \"#utility.yul\":14374:14471   */\n      tag_342\n        /* \"#utility.yul\":14404:14470   */\n      0xffffffffffffffffffffffffffffffffffffffffffffffffffffffffffffffff\n        /* \"#utility.yul\":14393:14402   */\n      dup3\n        /* \"#utility.yul\":14374:14471   */\n      tag_176\n      jump\t// in\n    tag_342:\n        /* \"#utility.yul\":14492:14531   */\n      tag_343\n        /* \"#utility.yul\":14522:14530   */\n      dup7\n        /* \"#utility.yul\":14511:14520   */\n      dup4\n        /* \"#utility.yul\":14492:14531   */\n      tag_176\n      jump\t// in\n    tag_343:\n        /* \"#utility.yul\":14480:14531   */\n      swap6\n      pop\n        /* \"#utility.yul\":14564:14568   */\n      dup1\n        /* \"#utility.yul\":14560:14569   */\n      not\n        /* \"#utility.yul\":14553:14558   */\n      dup5\n        /* \"#utility.yul\":14549:14570   */\n      and\n        /* \"#utility.yul\":14540:14570   */\n      swap4\n      pop\n        /* \"#utility.yul\":14613:14617   */\n      dup1\n        /* \"#utility.yul\":14603:14611   */\n      dup7\n        /* \"#utility.yul\":14599:14618   */\n      and\n        /* \"#utility.yul\":14592:14597   */\n      dup5\n        /* \"#utility.yul\":14589:14619   */\n      or\n        /* \"#utility.yul\":14579:14619   */\n      swap3\n      pop\n        /* \"#utility.yul\":14308:14625   */\n      pop\n      pop\n        /* \"#utility.yul\":14232:14625   */\n      swap4\n      swap3\n      pop\n      pop\n      pop\n      jump\t// out\n        /* \"#utility.yul\":14631:14691   */\n    tag_178:\n        /* \"#utility.yul\":14659:14662   */\n      0x00\n        /* \"#utility.yul\":14680:14685   */\n      dup2\n        /* \"#utility.yul\":14673:14685   */\n      swap1\n      pop\n        /* \"#utility.yul\":14631:14691   */\n      swap2\n      swap1\n      pop\n      jump\t// out\n        /* \"#utility.yul\":14697:14839   */\n    tag_179:\n        /* \"#utility.yul\":14747:14756   */\n      0x00\n        /* \"#utility.yul\":14780:14833   */\n      tag_346\n        /* \"#utility.yul\":14798:14832   */\n      tag_347\n        /* \"#utility.yul\":14807:14831   */\n      tag_348\n        /* \"#utility.yul\":14825:14830   */\n      dup5\n        /* \"#utility.yul\":14807:14831   */\n      tag_136\n      jump\t// in\n    tag_348:\n        /* \"#utility.yul\":14798:14832   */\n      tag_178\n      jump\t// in\n    tag_347:\n        /* \"#utility.yul\":14780:14833   */\n      tag_136\n      jump\t// in\n    tag_346:\n        /* \"#utility.yul\":14767:14833   */\n      swap1\n      pop\n        /* \"#utility.yul\":14697:14839   */\n      swap2\n      swap1\n      pop\n      jump\t// out\n        /* \"#utility.yul\":14845:14920   */\n    tag_180:\n        /* \"#utility.yul\":14888:14891   */\n      0x00\n        /* \"#utility.yul\":14909:14914   */\n      dup2\n        /* \"#utility.yul\":14902:14914   */\n      swap1\n      pop\n        /* \"#utility.yul\":14845:14920   */\n      swap2\n      swap1\n      pop\n      jump\t// out\n        /* \"#utility.yul\":14926:15195   */\n    tag_181:\n        /* \"#utility.yul\":15036:15075   */\n      tag_351\n        /* \"#utility.yul\":15067:15074   */\n      dup4\n        /* \"#utility.yul\":15036:15075   */\n      tag_179\n      jump\t// in\n    tag_351:\n        /* \"#utility.yul\":15097:15188   */\n      tag_352\n        /* \"#utility.yul\":15146:15187   */\n      tag_353\n        /* \"#utility.yul\":15170:15186   */\n      dup3\n        /* \"#utility.yul\":15146:15187   */\n      tag_180\n      jump\t// in\n    tag_353:\n        /* \"#utility.yul\":15138:15144   */\n      dup5\n        /* \"#utility.yul\":15131:15135   */\n      dup5\n        /* \"#utility.yul\":15125:15136   */\n      sload\n        /* \"#utility.yul\":15097:15188   */\n      tag_177\n      jump\t// in\n    tag_352:\n        /* \"#utility.yul\":15091:15095   */\n      dup3\n        /* \"#utility.yul\":15084:15189   */\n      sstore\n        /* \"#utility.yul\":15002:15195   */\n      pop\n        /* \"#utility.yul\":14926:15195   */\n      pop\n      pop\n      pop\n      jump\t// out\n        /* \"#utility.yul\":15201:15274   */\n    tag_182:\n        /* \"#utility.yul\":15246:15249   */\n      0x00\n        /* \"#utility.yul\":15201:15274   */\n      swap1\n      jump\t// out\n        /* \"#utility.yul\":15280:15469   */\n    tag_183:\n        /* \"#utility.yul\":15357:15389   */\n      tag_356\n      tag_182\n      jump\t// in\n    tag_356:\n        /* \"#utility.yul\":15398:15463   */\n      tag_357\n        /* \"#utility.yul\":15456:15462   */\n      dup2\n        /* \"#utility.yul\":15448:15454   */\n      dup5\n        /* \"#utility.yul\":15442:15446   */\n      dup5\n        /* \"#utility.yul\":15398:15463   */\n      tag_181\n      jump\t// in\n    tag_357:\n        /* \"#utility.yul\":15333:15469   */\n      pop\n        /* \"#utility.yul\":15280:15469   */\n      pop\n      pop\n      jump\t// out\n        /* \"#utility.yul\":15475:15661   */\n    tag_184:\n        /* \"#utility.yul\":15535:15655   */\n    tag_359:\n        /* \"#utility.yul\":15552:15555   */\n      dup2\n        /* \"#utility.yul\":15545:15550   */\n      dup2\n        /* \"#utility.yul\":15542:15556   */\n      lt\n        /* \"#utility.yul\":15535:15655   */\n      iszero\n      tag_361\n      jumpi\n        /* \"#utility.yul\":15606:15645   */\n      tag_362\n        /* \"#utility.yul\":15643:15644   */\n      0x00\n        /* \"#utility.yul\":15636:15641   */\n      dup3\n        /* \"#utility.yul\":15606:15645   */\n      tag_183\n      jump\t// in\n    tag_362:\n        /* \"#utility.yul\":15579:15580   */\n      0x01\n        /* \"#utility.yul\":15572:15577   */\n      dup2\n        /* \"#utility.yul\":15568:15581   */\n      add\n        /* \"#utility.yul\":15559:15581   */\n      swap1\n      pop\n        /* \"#utility.yul\":15535:15655   */\n      jump(tag_359)\n    tag_361:\n        /* \"#utility.yul\":15475:15661   */\n      pop\n      pop\n      jump\t// out\n        /* \"#utility.yul\":15667:16210   */\n    tag_185:\n        /* \"#utility.yul\":15768:15770   */\n      0x1f\n        /* \"#utility.yul\":15763:15766   */\n      dup3\n        /* \"#utility.yul\":15760:15771   */\n      gt\n        /* \"#utility.yul\":15757:16203   */\n      iszero\n      tag_364\n      jumpi\n        /* \"#utility.yul\":15802:15840   */\n      tag_365\n        /* \"#utility.yul\":15834:15839   */\n      dup2\n        /* \"#utility.yul\":15802:15840   */\n      tag_173\n      jump\t// in\n    tag_365:\n        /* \"#utility.yul\":15886:15915   */\n      tag_366\n        /* \"#utility.yul\":15904:15914   */\n      dup5\n        /* \"#utility.yul\":15886:15915   */\n      tag_175\n      jump\t// in\n    tag_366:\n        /* \"#utility.yul\":15876:15884   */\n      dup2\n        /* \"#utility.yul\":15872:15916   */\n      add\n        /* \"#utility.yul\":16069:16071   */\n      0x20\n        /* \"#utility.yul\":16057:16067   */\n      dup6\n        /* \"#utility.yul\":16054:16072   */\n      lt\n        /* \"#utility.yul\":16051:16100   */\n      iszero\n      tag_367\n      jumpi\n        /* \"#utility.yul\":16090:16098   */\n      dup2\n        /* \"#utility.yul\":16075:16098   */\n      swap1\n      pop\n        /* \"#utility.yul\":16051:16100   */\n    tag_367:\n        /* \"#utility.yul\":16113:16193   */\n      tag_368\n        /* \"#utility.yul\":16169:16191   */\n      tag_369\n        /* \"#utility.yul\":16187:16190   */\n      dup6\n        /* \"#utility.yul\":16169:16191   */\n      tag_175\n      jump\t// in\n    tag_369:\n        /* \"#utility.yul\":16159:16167   */\n      dup4\n        /* \"#utility.yul\":16155:16192   */\n      add\n        /* \"#utility.yul\":16142:16153   */\n      dup3\n        /* \"#utility.yul\":16113:16193   */\n      tag_184\n      jump\t// in\n    tag_368:\n        /* \"#utility.yul\":15772:16203   */\n      pop\n      pop\n        /* \"#utility.yul\":15757:16203   */\n    tag_364:\n        /* \"#utility.yul\":15667:16210   */\n      pop\n      pop\n      pop\n      jump\t// out\n        /* \"#utility.yul\":16216:16333   */\n    tag_186:\n        /* \"#utility.yul\":16270:16278   */\n      0x00\n        /* \"#utility.yul\":16320:16325   */\n      dup3\n        /* \"#utility.yul\":16314:16318   */\n      dup3\n        /* \"#utility.yul\":16310:16326   */\n      shr\n        /* \"#utility.yul\":16289:16326   */\n      swap1\n      pop\n        /* \"#utility.yul\":16216:16333   */\n      swap3\n      swap2\n      pop\n      pop\n      jump\t// out\n        /* \"#utility.yul\":16339:16508   */\n    tag_187:\n        /* \"#utility.yul\":16383:16389   */\n      0x00\n        /* \"#utility.yul\":16416:16467   */\n      tag_372\n        /* \"#utility.yul\":16464:16465   */\n      0x00\n        /* \"#utility.yul\":16460:16466   */\n      not\n        /* \"#utility.yul\":16452:16457   */\n      dup5\n        /* \"#utility.yul\":16449:16450   */\n      0x08\n        /* \"#utility.yul\":16445:16458   */\n      mul\n        /* \"#utility.yul\":16416:16467   */\n      tag_186\n      jump\t// in\n    tag_372:\n        /* \"#utility.yul\":16412:16468   */\n      not\n        /* \"#utility.yul\":16497:16501   */\n      dup1\n        /* \"#utility.yul\":16491:16495   */\n      dup4\n        /* \"#utility.yul\":16487:16502   */\n      and\n        /* \"#utility.yul\":16477:16502   */\n      swap2\n      pop\n        /* \"#utility.yul\":16390:16508   */\n      pop\n        /* \"#utility.yul\":16339:16508   */\n      swap3\n      swap2\n      pop\n      pop\n      jump\t// out\n        /* \"#utility.yul\":16513:16808   */\n    tag_188:\n        /* \"#utility.yul\":16589:16593   */\n      0x00\n        /* \"#utility.yul\":16735:16764   */\n      tag_374\n        /* \"#utility.yul\":16760:16763   */\n      dup4\n        /* \"#utility.yul\":16754:16758   */\n      dup4\n        /* \"#utility.yul\":16735:16764   */\n      tag_187\n      jump\t// in\n    tag_374:\n        /* \"#utility.yul\":16727:16764   */\n      swap2\n      pop\n        /* \"#utility.yul\":16797:16800   */\n      dup3\n        /* \"#utility.yul\":16794:16795   */\n      0x02\n        /* \"#utility.yul\":16790:16801   */\n      mul\n        /* \"#utility.yul\":16784:16788   */\n      dup3\n        /* \"#utility.yul\":16781:16802   */\n      or\n        /* \"#utility.yul\":16773:16802   */\n      swap1\n      pop\n        /* \"#utility.yul\":16513:16808   */\n      swap3\n      swap2\n      pop\n      pop\n      jump\t// out\n        /* \"#utility.yul\":16813:18276   */\n    tag_70:\n        /* \"#utility.yul\":16928:16931   */\n      dup2\n        /* \"#utility.yul\":16922:16926   */\n      dup2\n        /* \"#utility.yul\":16919:16932   */\n      sub\n        /* \"#utility.yul\":16916:16942   */\n      tag_376\n      jumpi\n        /* \"#utility.yul\":16935:16940   */\n      pop\n      pop\n      jump(tag_375)\n        /* \"#utility.yul\":16916:16942   */\n    tag_376:\n        /* \"#utility.yul\":16966:17004   */\n      tag_377\n        /* \"#utility.yul\":17000:17003   */\n      dup3\n        /* \"#utility.yul\":16966:17004   */\n      tag_172\n      jump\t// in\n    tag_377:\n        /* \"#utility.yul\":17069:17087   */\n      0xffffffffffffffff\n        /* \"#utility.yul\":17061:17067   */\n      dup2\n        /* \"#utility.yul\":17058:17088   */\n      gt\n        /* \"#utility.yul\":17055:17111   */\n      iszero\n      tag_378\n      jumpi\n        /* \"#utility.yul\":17091:17109   */\n      tag_379\n      tag_82\n      jump\t// in\n    tag_379:\n        /* \"#utility.yul\":17055:17111   */\n    tag_378:\n        /* \"#utility.yul\":17135:17173   */\n      tag_380\n        /* \"#utility.yul\":17167:17171   */\n      dup3\n        /* \"#utility.yul\":17161:17172   */\n      sload\n        /* \"#utility.yul\":17135:17173   */\n      tag_92\n      jump\t// in\n    tag_380:\n        /* \"#utility.yul\":17220:17287   */\n      tag_381\n        /* \"#utility.yul\":17280:17286   */\n      dup3\n        /* \"#utility.yul\":17272:17278   */\n      dup3\n        /* \"#utility.yul\":17266:17270   */\n      dup6\n        /* \"#utility.yul\":17220:17287   */\n      tag_185\n      jump\t// in\n    tag_381:\n        /* \"#utility.yul\":17314:17315   */\n      0x00\n        /* \"#utility.yul\":17343:17345   */\n      0x1f\n        /* \"#utility.yul\":17335:17341   */\n      dup4\n        /* \"#utility.yul\":17332:17346   */\n      gt\n        /* \"#utility.yul\":17360:17361   */\n      0x01\n        /* \"#utility.yul\":17355:18031   */\n      dup2\n      eq\n      tag_383\n      jumpi\n        /* \"#utility.yul\":18075:18076   */\n      0x00\n        /* \"#utility.yul\":18092:18098   */\n      dup5\n        /* \"#utility.yul\":18089:18166   */\n      iszero\n      tag_384\n      jumpi\n        /* \"#utility.yul\":18141:18150   */\n      dup3\n        /* \"#utility.yul\":18136:18139   */\n      dup8\n        /* \"#utility.yul\":18132:18151   */\n      add\n        /* \"#utility.yul\":18126:18152   */\n      sload\n        /* \"#utility.yul\":18117:18152   */\n      swap1\n      pop\n        /* \"#utility.yul\":18089:18166   */\n    tag_384:\n        /* \"#utility.yul\":18192:18259   */\n      tag_385\n        /* \"#utility.yul\":18252:18258   */\n      dup6\n        /* \"#utility.yul\":18245:18250   */\n      dup3\n        /* \"#utility.yul\":18192:18259   */\n      tag_188\n      jump\t// in\n    tag_385:\n        /* \"#utility.yul\":18186:18190   */\n      dup7\n        /* \"#utility.yul\":18179:18260   */\n      sstore\n        /* \"#utility.yul\":18048:18270   */\n      pop\n        /* \"#utility.yul\":17325:18270   */\n      jump(tag_382)\n        /* \"#utility.yul\":17355:18031   */\n    tag_383:\n        /* \"#utility.yul\":17407:17411   */\n      0x1f\n        /* \"#utility.yul\":17403:17412   */\n      not\n        /* \"#utility.yul\":17395:17401   */\n      dup5\n        /* \"#utility.yul\":17391:17413   */\n      and\n        /* \"#utility.yul\":17433:17473   */\n      tag_386\n        /* \"#utility.yul\":17469:17472   */\n      dup8\n        /* \"#utility.yul\":17433:17473   */\n      tag_174\n      jump\t// in\n    tag_386:\n        /* \"#utility.yul\":17426:17473   */\n      swap7\n      pop\n        /* \"#utility.yul\":17500:17537   */\n      tag_387\n        /* \"#utility.yul\":17532:17536   */\n      dup7\n        /* \"#utility.yul\":17500:17537   */\n      tag_173\n      jump\t// in\n    tag_387:\n        /* \"#utility.yul\":17559:17560   */\n      0x00\n        /* \"#utility.yul\":17573:17780   */\n    tag_388:\n        /* \"#utility.yul\":17587:17594   */\n      dup3\n        /* \"#utility.yul\":17584:17585   */\n      dup2\n        /* \"#utility.yul\":17581:17595   */\n      lt\n        /* \"#utility.yul\":17573:17780   */\n      iszero\n      tag_390\n      jumpi\n        /* \"#utility.yul\":17666:17675   */\n      dup5\n        /* \"#utility.yul\":17661:17664   */\n      dup10\n        /* \"#utility.yul\":17657:17676   */\n      add\n        /* \"#utility.yul\":17651:17677   */\n      sload\n        /* \"#utility.yul\":17643:17649   */\n      dup3\n        /* \"#utility.yul\":17636:17678   */\n      sstore\n        /* \"#utility.yul\":17717:17718   */\n      0x01\n        /* \"#utility.yul\":17709:17715   */\n      dup3\n        /* \"#utility.yul\":17705:17719   */\n      add\n        /* \"#utility.yul\":17695:17719   */\n      swap2\n      pop\n        /* \"#utility.yul\":17764:17765   */\n      0x01\n        /* \"#utility.yul\":17753:17762   */\n      dup6\n        /* \"#utility.yul\":17749:17766   */\n      add\n        /* \"#utility.yul\":17736:17766   */\n      swap5\n      pop\n        /* \"#utility.yul\":17610:17614   */\n      0x20\n        /* \"#utility.yul\":17607:17608   */\n      dup2\n        /* \"#utility.yul\":17603:17615   */\n      add\n        /* \"#utility.yul\":17598:17615   */\n      swap1\n      pop\n        /* \"#utility.yul\":17573:17780   */\n      jump(tag_388)\n    tag_390:\n        /* \"#utility.yul\":17808:17814   */\n      dup7\n        /* \"#utility.yul\":17799:17806   */\n      dup4\n        /* \"#utility.yul\":17796:17815   */\n      lt\n        /* \"#utility.yul\":17793:17972   */\n      iszero\n      tag_391\n      jumpi\n        /* \"#utility.yul\":17866:17875   */\n      dup5\n        /* \"#utility.yul\":17861:17864   */\n      dup10\n        /* \"#utility.yul\":17857:17876   */\n      add\n        /* \"#utility.yul\":17851:17877   */\n      sload\n        /* \"#utility.yul\":17909:17957   */\n      tag_392\n        /* \"#utility.yul\":17951:17955   */\n      0x1f\n        /* \"#utility.yul\":17943:17949   */\n      dup10\n        /* \"#utility.yul\":17939:17956   */\n      and\n        /* \"#utility.yul\":17928:17937   */\n      dup3\n        /* \"#utility.yul\":17909:17957   */\n      tag_187\n      jump\t// in\n    tag_392:\n        /* \"#utility.yul\":17901:17907   */\n      dup4\n        /* \"#utility.yul\":17894:17958   */\n      sstore\n        /* \"#utility.yul\":17816:17972   */\n      pop\n        /* \"#utility.yul\":17793:17972   */\n    tag_391:\n        /* \"#utility.yul\":18018:18019   */\n      0x01\n        /* \"#utility.yul\":18014:18015   */\n      0x02\n        /* \"#utility.yul\":18006:18012   */\n      dup9\n        /* \"#utility.yul\":18002:18016   */\n      mul\n        /* \"#utility.yul\":17998:18020   */\n      add\n        /* \"#utility.yul\":17992:17996   */\n      dup9\n        /* \"#utility.yul\":17985:18021   */\n      sstore\n        /* \"#utility.yul\":17362:18031   */\n      pop\n      pop\n      pop\n        /* \"#utility.yul\":17325:18270   */\n    tag_382:\n      pop\n        /* \"#utility.yul\":16906:18276   */\n      pop\n      pop\n      pop\n        /* \"#utility.yul\":16813:18276   */\n      pop\n      pop\n    tag_375:\n      jump\t// out\n        /* \"#utility.yul\":18282:18462   */\n    tag_74:\n        /* \"#utility.yul\":18330:18407   */\n      0x4e487b7100000000000000000000000000000000000000000000000000000000\n        /* \"#utility.yul\":18327:18328   */\n      0x00\n        /* \"#utility.yul\":18320:18408   */\n      mstore\n        /* \"#utility.yul\":18427:18431   */\n      0x31\n        /* \"#utility.yul\":18424:18425   */\n      0x04\n        /* \"#utility.yul\":18417:18432   */\n      mstore\n        /* \"#utility.yul\":18451:18455   */\n      0x24\n        /* \"#utility.yul\":18448:18449   */\n      0x00\n        /* \"#utility.yul\":18441:18456   */\n      revert\n        /* \"#utility.yul\":18468:19863   */\n    tag_100:\n        /* \"#utility.yul\":18585:18622   */\n      tag_395\n        /* \"#utility.yul\":18618:18621   */\n      dup3\n        /* \"#utility.yul\":18585:18622   */\n      tag_146\n      jump\t// in\n    tag_395:\n        /* \"#utility.yul\":18687:18705   */\n      0xffffffffffffffff\n        /* \"#utility.yul\":18679:18685   */\n      dup2\n        /* \"#utility.yul\":18676:18706   */\n      gt\n        /* \"#utility.yul\":18673:18729   */\n      iszero\n      tag_396\n      jumpi\n        /* \"#utility.yul\":18709:18727   */\n      tag_397\n      tag_82\n      jump\t// in\n    tag_397:\n        /* \"#utility.yul\":18673:18729   */\n    tag_396:\n        /* \"#utility.yul\":18753:18791   */\n      tag_398\n        /* \"#utility.yul\":18785:18789   */\n      dup3\n        /* \"#utility.yul\":18779:18790   */\n      sload\n        /* \"#utility.yul\":18753:18791   */\n      tag_92\n      jump\t// in\n    tag_398:\n        /* \"#utility.yul\":18838:18905   */\n      tag_399\n        /* \"#utility.yul\":18898:18904   */\n      dup3\n        /* \"#utility.yul\":18890:18896   */\n      dup3\n        /* \"#utility.yul\":18884:18888   */\n      dup6\n        /* \"#utility.yul\":18838:18905   */\n      tag_185\n      jump\t// in\n    tag_399:\n        /* \"#utility.yul\":18932:18933   */\n      0x00\n        /* \"#utility.yul\":18956:18960   */\n      0x20\n        /* \"#utility.yul\":18943:18960   */\n      swap1\n      pop\n        /* \"#utility.yul\":18988:18990   */\n      0x1f\n        /* \"#utility.yul\":18980:18986   */\n      dup4\n        /* \"#utility.yul\":18977:18991   */\n      gt\n        /* \"#utility.yul\":19005:19006   */\n      0x01\n        /* \"#utility.yul\":19000:19618   */\n      dup2\n      eq\n      tag_401\n      jumpi\n        /* \"#utility.yul\":19662:19663   */\n      0x00\n        /* \"#utility.yul\":19679:19685   */\n      dup5\n        /* \"#utility.yul\":19676:19753   */\n      iszero\n      tag_402\n      jumpi\n        /* \"#utility.yul\":19728:19737   */\n      dup3\n        /* \"#utility.yul\":19723:19726   */\n      dup8\n        /* \"#utility.yul\":19719:19738   */\n      add\n        /* \"#utility.yul\":19713:19739   */\n      mload\n        /* \"#utility.yul\":19704:19739   */\n      swap1\n      pop\n        /* \"#utility.yul\":19676:19753   */\n    tag_402:\n        /* \"#utility.yul\":19779:19846   */\n      tag_403\n        /* \"#utility.yul\":19839:19845   */\n      dup6\n        /* \"#utility.yul\":19832:19837   */\n      dup3\n        /* \"#utility.yul\":19779:19846   */\n      tag_188\n      jump\t// in\n    tag_403:\n        /* \"#utility.yul\":19773:19777   */\n      dup7\n        /* \"#utility.yul\":19766:19847   */\n      sstore\n        /* \"#utility.yul\":19635:19857   */\n      pop\n        /* \"#utility.yul\":18970:19857   */\n      jump(tag_400)\n        /* \"#utility.yul\":19000:19618   */\n    tag_401:\n        /* \"#utility.yul\":19052:19056   */\n      0x1f\n        /* \"#utility.yul\":19048:19057   */\n      not\n        /* \"#utility.yul\":19040:19046   */\n      dup5\n        /* \"#utility.yul\":19036:19058   */\n      and\n        /* \"#utility.yul\":19086:19123   */\n      tag_404\n        /* \"#utility.yul\":19118:19122   */\n      dup7\n        /* \"#utility.yul\":19086:19123   */\n      tag_173\n      jump\t// in\n    tag_404:\n        /* \"#utility.yul\":19145:19146   */\n      0x00\n        /* \"#utility.yul\":19159:19367   */\n    tag_405:\n        /* \"#utility.yul\":19173:19180   */\n      dup3\n        /* \"#utility.yul\":19170:19171   */\n      dup2\n        /* \"#utility.yul\":19167:19181   */\n      lt\n        /* \"#utility.yul\":19159:19367   */\n      iszero\n      tag_407\n      jumpi\n        /* \"#utility.yul\":19252:19261   */\n      dup5\n        /* \"#utility.yul\":19247:19250   */\n      dup10\n        /* \"#utility.yul\":19243:19262   */\n      add\n        /* \"#utility.yul\":19237:19263   */\n      mload\n        /* \"#utility.yul\":19229:19235   */\n      dup3\n        /* \"#utility.yul\":19222:19264   */\n      sstore\n        /* \"#utility.yul\":19303:19304   */\n      0x01\n        /* \"#utility.yul\":19295:19301   */\n      dup3\n        /* \"#utility.yul\":19291:19305   */\n      add\n        /* \"#utility.yul\":19281:19305   */\n      swap2\n      pop\n        /* \"#utility.yul\":19350:19352   */\n      0x20\n        /* \"#utility.yul\":19339:19348   */\n      dup6\n        /* \"#utility.yul\":19335:19353   */\n      add\n        /* \"#utility.yul\":19322:19353   */\n      swap5\n      pop\n        /* \"#utility.yul\":19196:19200   */\n      0x20\n        /* \"#utility.yul\":19193:19194   */\n      dup2\n        /* \"#utility.yul\":19189:19201   */\n      add\n        /* \"#utility.yul\":19184:19201   */\n      swap1\n      pop\n        /* \"#utility.yul\":19159:19367   */\n      jump(tag_405)\n    tag_407:\n        /* \"#utility.yul\":19395:19401   */\n      dup7\n        /* \"#utility.yul\":19386:19393   */\n      dup4\n        /* \"#utility.yul\":19383:19402   */\n      lt\n        /* \"#utility.yul\":19380:19559   */\n      iszero\n      tag_408\n      jumpi\n        /* \"#utility.yul\":19453:19462   */\n      dup5\n        /* \"#utility.yul\":19448:19451   */\n      dup10\n        /* \"#utility.yul\":19444:19463   */\n      add\n        /* \"#utility.yul\":19438:19464   */\n      mload\n        /* \"#utility.yul\":19496:19544   */\n      tag_409\n        /* \"#utility.yul\":19538:19542   */\n      0x1f\n        /* \"#utility.yul\":19530:19536   */\n      dup10\n        /* \"#utility.yul\":19526:19543   */\n      and\n        /* \"#utility.yul\":19515:19524   */\n      dup3\n        /* \"#utility.yul\":19496:19544   */\n      tag_187\n      jump\t// in\n    tag_409:\n        /* \"#utility.yul\":19488:19494   */\n      dup4\n        /* \"#utility.yul\":19481:19545   */\n      sstore\n        /* \"#utility.yul\":19403:19559   */\n      pop\n        /* \"#utility.yul\":19380:19559   */\n    tag_408:\n        /* \"#utility.yul\":19605:19606   */\n      0x01\n        /* \"#utility.yul\":19601:19602   */\n      0x02\n        /* \"#utility.yul\":19593:19599   */\n      dup9\n        /* \"#utility.yul\":19589:19603   */\n      mul\n        /* \"#utility.yul\":19585:19607   */\n      add\n        /* \"#utility.yul\":19579:19583   */\n      dup9\n        /* \"#utility.yul\":19572:19608   */\n      sstore\n        /* \"#utility.yul\":19007:19618   */\n      pop\n      pop\n      pop\n        /* \"#utility.yul\":18970:19857   */\n    tag_400:\n      pop\n        /* \"#utility.yul\":18560:19863   */\n      pop\n      pop\n      pop\n        /* \"#utility.yul\":18468:19863   */\n      pop\n      pop\n      jump\t// out\n        /* \"#utility.yul\":19869:20038   */\n    tag_189:\n        /* \"#utility.yul\":20009:20030   */\n      0x53656c656374207269676874206f7074696f6e00000000000000000000000000\n        /* \"#utility.yul\":20005:20006   */\n      0x00\n        /* \"#utility.yul\":19997:20003   */\n      dup3\n        /* \"#utility.yul\":19993:20007   */\n      add\n        /* \"#utility.yul\":19986:20031   */\n      mstore\n        /* \"#utility.yul\":19869:20038   */\n      pop\n      jump\t// out\n        /* \"#utility.yul\":20044:20410   */\n    tag_190:\n        /* \"#utility.yul\":20186:20189   */\n      0x00\n        /* \"#utility.yul\":20207:20274   */\n      tag_412\n        /* \"#utility.yul\":20271:20273   */\n      0x13\n        /* \"#utility.yul\":20266:20269   */\n      dup4\n        /* \"#utility.yul\":20207:20274   */\n      tag_147\n      jump\t// in\n    tag_412:\n        /* \"#utility.yul\":20200:20274   */\n      swap2\n      pop\n        /* \"#utility.yul\":20283:20376   */\n      tag_413\n        /* \"#utility.yul\":20372:20375   */\n      dup3\n        /* \"#utility.yul\":20283:20376   */\n      tag_189\n      jump\t// in\n    tag_413:\n        /* \"#utility.yul\":20401:20403   */\n      0x20\n        /* \"#utility.yul\":20396:20399   */\n      dup3\n        /* \"#utility.yul\":20392:20404   */\n      add\n        /* \"#utility.yul\":20385:20404   */\n      swap1\n      pop\n        /* \"#utility.yul\":20044:20410   */\n      swap2\n      swap1\n      pop\n      jump\t// out\n        /* \"#utility.yul\":20416:20835   */\n    tag_113:\n        /* \"#utility.yul\":20582:20586   */\n      0x00\n        /* \"#utility.yul\":20620:20622   */\n      0x20\n        /* \"#utility.yul\":20609:20618   */\n      dup3\n        /* \"#utility.yul\":20605:20623   */\n      add\n        /* \"#utility.yul\":20597:20623   */\n      swap1\n      pop\n        /* \"#utility.yul\":20669:20678   */\n      dup2\n        /* \"#utility.yul\":20663:20667   */\n      dup2\n        /* \"#utility.yul\":20659:20679   */\n      sub\n        /* \"#utility.yul\":20655:20656   */\n      0x00\n        /* \"#utility.yul\":20644:20653   */\n      dup4\n        /* \"#utility.yul\":20640:20657   */\n      add\n        /* \"#utility.yul\":20633:20680   */\n      mstore\n        /* \"#utility.yul\":20697:20828   */\n      tag_415\n        /* \"#utility.yul\":20823:20827   */\n      dup2\n        /* \"#utility.yul\":20697:20828   */\n      tag_190\n      jump\t// in\n    tag_415:\n        /* \"#utility.yul\":20689:20828   */\n      swap1\n      pop\n        /* \"#utility.yul\":20416:20835   */\n      swap2\n      swap1\n      pop\n      jump\t// out\n        /* \"#utility.yul\":20841:21006   */\n    tag_191:\n        /* \"#utility.yul\":20981:20998   */\n      0x5520616c726561647920766f7465640000000000000000000000000000000000\n        /* \"#utility.yul\":20977:20978   */\n      0x00\n        /* \"#utility.yul\":20969:20975   */\n      dup3\n        /* \"#utility.yul\":20965:20979   */\n      add\n        /* \"#utility.yul\":20958:20999   */\n      mstore\n        /* \"#utility.yul\":20841:21006   */\n      pop\n      jump\t// out\n        /* \"#utility.yul\":21012:21378   */\n    tag_192:\n        /* \"#utility.yul\":21154:21157   */\n      0x00\n        /* \"#utility.yul\":21175:21242   */\n      tag_418\n        /* \"#utility.yul\":21239:21241   */\n      0x0f\n        /* \"#utility.yul\":21234:21237   */\n      dup4\n        /* \"#utility.yul\":21175:21242   */\n      tag_147\n      jump\t// in\n    tag_418:\n        /* \"#utility.yul\":21168:21242   */\n      swap2\n      pop\n        /* \"#utility.yul\":21251:21344   */\n      tag_419\n        /* \"#utility.yul\":21340:21343   */\n      dup3\n        /* \"#utility.yul\":21251:21344   */\n      tag_191\n      jump\t// in\n    tag_419:\n        /* \"#utility.yul\":21369:21371   */\n      0x20\n        /* \"#utility.yul\":21364:21367   */\n      dup3\n        /* \"#utility.yul\":21360:21372   */\n      add\n        /* \"#utility.yul\":21353:21372   */\n      swap1\n      pop\n        /* \"#utility.yul\":21012:21378   */\n      swap2\n      swap1\n      pop\n      jump\t// out\n        /* \"#utility.yul\":21384:21803   */\n    tag_116:\n        /* \"#utility.yul\":21550:21554   */\n      0x00\n        /* \"#utility.yul\":21588:21590   */\n      0x20\n        /* \"#utility.yul\":21577:21586   */\n      dup3\n        /* \"#utility.yul\":21573:21591   */\n      add\n        /* \"#utility.yul\":21565:21591   */\n      swap1\n      pop\n        /* \"#utility.yul\":21637:21646   */\n      dup2\n        /* \"#utility.yul\":21631:21635   */\n      dup2\n        /* \"#utility.yul\":21627:21647   */\n      sub\n        /* \"#utility.yul\":21623:21624   */\n      0x00\n        /* \"#utility.yul\":21612:21621   */\n      dup4\n        /* \"#utility.yul\":21608:21625   */\n      add\n        /* \"#utility.yul\":21601:21648   */\n      mstore\n        /* \"#utility.yul\":21665:21796   */\n      tag_421\n        /* \"#utility.yul\":21791:21795   */\n      dup2\n        /* \"#utility.yul\":21665:21796   */\n      tag_192\n      jump\t// in\n    tag_421:\n        /* \"#utility.yul\":21657:21796   */\n      swap1\n      pop\n        /* \"#utility.yul\":21384:21803   */\n      swap2\n      swap1\n      pop\n      jump\t// out\n        /* \"#utility.yul\":21809:22042   */\n    tag_119:\n        /* \"#utility.yul\":21848:21851   */\n      0x00\n        /* \"#utility.yul\":21871:21895   */\n      tag_423\n        /* \"#utility.yul\":21889:21894   */\n      dup3\n        /* \"#utility.yul\":21871:21895   */\n      tag_136\n      jump\t// in\n    tag_423:\n        /* \"#utility.yul\":21862:21895   */\n      swap2\n      pop\n        /* \"#utility.yul\":21917:21983   */\n      0xffffffffffffffffffffffffffffffffffffffffffffffffffffffffffffffff\n        /* \"#utility.yul\":21910:21915   */\n      dup3\n        /* \"#utility.yul\":21907:21984   */\n      sub\n        /* \"#utility.yul\":21904:22007   */\n      tag_424\n      jumpi\n        /* \"#utility.yul\":21987:22005   */\n      tag_425\n      tag_170\n      jump\t// in\n    tag_425:\n        /* \"#utility.yul\":21904:22007   */\n    tag_424:\n        /* \"#utility.yul\":22034:22035   */\n      0x01\n        /* \"#utility.yul\":22027:22032   */\n      dup3\n        /* \"#utility.yul\":22023:22036   */\n      add\n        /* \"#utility.yul\":22016:22036   */\n      swap1\n      pop\n        /* \"#utility.yul\":21809:22042   */\n      swap2\n      swap1\n      pop\n      jump\t// out\n\n    auxdata: 0xa2646970667358221220cb19aca3b5fe1b7e7f785d1664d402ef1a86acb76884305d94f89fbbfdd6f2f864736f6c634300081a0033\n}\n",
				"bytecode": {
					"linkReferences": {},
					"object": "6080604052348015600e575f80fd5b506113248061001c5f395ff3fe608060405234801561000f575f80fd5b5060043610610091575f3560e01c80635df81330116100645780635df813301461012f5780638778b27d1461015f5780639242850a1461017d5780639ac28f8c14610199578063fd4a77f1146101b757610091565b806309eef43e1461009557806332748fdb146100c5578063357da247146100e1578063409e2205146100ff575b5f80fd5b6100af60048036038101906100aa91906107cc565b6101d3565b6040516100bc9190610811565b60405180910390f35b6100df60048036038101906100da919061085d565b6101f0565b005b6100e9610336565b6040516100f6919061093f565b60405180910390f35b6101196004803603810190610114919061085d565b6103dc565b60405161012691906109cf565b60405180910390f35b6101496004803603810190610144919061085d565b610481565b60405161015691906109fe565b60405180910390f35b610167610496565b60405161017491906109fe565b60405180910390f35b61019760048036038101906101929190610b43565b61049c565b005b6101a16104d0565b6040516101ae9190610c8d565b60405180910390f35b6101d160048036038101906101cc919061085d565b6105a3565b005b6002602052805f5260405f205f915054906101000a900460ff1681565b5f805490508110610236576040517f08c379a000000000000000000000000000000000000000000000000000000000815260040161022d90610cf7565b60405180910390fd5b5f8190505b60015f8054905061024c9190610d42565b8110156102e2575f6001826102619190610d75565b8154811061027257610271610da8565b5b905f5260205f20015f828154811061028d5761028c610da8565b5b905f5260205f200190816102a19190610ff6565b5060015f6001836102b29190610d75565b81526020019081526020015f205460015f8381526020019081526020015f2081905550808060010191505061023b565b505f8054806102f4576102f36110db565b5b600190038181905f5260205f20015f61030d9190610709565b905560015f60015f805490506103239190610d42565b81526020019081526020015f205f905550565b60605f808054905067ffffffffffffffff81111561035757610356610a1f565b5b6040519080825280602002602001820160405280156103855781602001602082028036833780820191505090505b5090505f5b5f805490508110156103d45760015f8281526020019081526020015f20548282815181106103bb576103ba610da8565b5b602002602001018181525050808060010191505061038a565b508091505090565b5f81815481106103ea575f80fd5b905f5260205f20015f91509050805461040290610e02565b80601f016020809104026020016040519081016040528092919081815260200182805461042e90610e02565b80156104795780601f1061045057610100808354040283529160200191610479565b820191905f5260205f20905b81548152906001019060200180831161045c57829003601f168201915b505050505081565b6001602052805f5260405f205f915090505481565b60035481565b5f81908060018154018082558091505060019003905f5260205f20015f9091909190915090816104cc9190611108565b5050565b60605f805480602002602001604051908101604052809291908181526020015f905b8282101561059a578382905f5260205f2001805461050f90610e02565b80601f016020809104026020016040519081016040528092919081815260200182805461053b90610e02565b80156105865780601f1061055d57610100808354040283529160200191610586565b820191905f5260205f20905b81548152906001019060200180831161056957829003601f168201915b5050505050815260200190600101906104f2565b50505050905090565b5f8054905081106105e9576040517f08c379a00000000000000000000000000000000000000000000000000000000081526004016105e090611221565b60405180910390fd5b60025f3373ffffffffffffffffffffffffffffffffffffffff1673ffffffffffffffffffffffffffffffffffffffff1681526020019081526020015f205f9054906101000a900460ff1615610673576040517f08c379a000000000000000000000000000000000000000000000000000000000815260040161066a90611289565b60405180910390fd5b6001805f8381526020019081526020015f205f8282546106939190610d75565b92505081905550600160025f3373ffffffffffffffffffffffffffffffffffffffff1673ffffffffffffffffffffffffffffffffffffffff1681526020019081526020015f205f6101000a81548160ff02191690831515021790555060035f815480929190610701906112a7565b919050555050565b50805461071590610e02565b5f825580601f106107265750610743565b601f0160209004905f5260205f20908101906107429190610746565b5b50565b5b8082111561075d575f815f905550600101610747565b5090565b5f604051905090565b5f80fd5b5f80fd5b5f73ffffffffffffffffffffffffffffffffffffffff82169050919050565b5f61079b82610772565b9050919050565b6107ab81610791565b81146107b5575f80fd5b50565b5f813590506107c6816107a2565b92915050565b5f602082840312156107e1576107e061076a565b5b5f6107ee848285016107b8565b91505092915050565b5f8115159050919050565b61080b816107f7565b82525050565b5f6020820190506108245f830184610802565b92915050565b5f819050919050565b61083c8161082a565b8114610846575f80fd5b50565b5f8135905061085781610833565b92915050565b5f602082840312156108725761087161076a565b5b5f61087f84828501610849565b91505092915050565b5f81519050919050565b5f82825260208201905092915050565b5f819050602082019050919050565b6108ba8161082a565b82525050565b5f6108cb83836108b1565b60208301905092915050565b5f602082019050919050565b5f6108ed82610888565b6108f78185610892565b9350610902836108a2565b805f5b8381101561093257815161091988826108c0565b9750610924836108d7565b925050600181019050610905565b5085935050505092915050565b5f6020820190508181035f83015261095781846108e3565b905092915050565b5f81519050919050565b5f82825260208201905092915050565b8281835e5f83830152505050565b5f601f19601f8301169050919050565b5f6109a18261095f565b6109ab8185610969565b93506109bb818560208601610979565b6109c481610987565b840191505092915050565b5f6020820190508181035f8301526109e78184610997565b905092915050565b6109f88161082a565b82525050565b5f602082019050610a115f8301846109ef565b92915050565b5f80fd5b5f80fd5b7f4e487b71000000000000000000000000000000000000000000000000000000005f52604160045260245ffd5b610a5582610987565b810181811067ffffffffffffffff82111715610a7457610a73610a1f565b5b80604052505050565b5f610a86610761565b9050610a928282610a4c565b919050565b5f67ffffffffffffffff821115610ab157610ab0610a1f565b5b610aba82610987565b9050602081019050919050565b828183375f83830152505050565b5f610ae7610ae284610a97565b610a7d565b905082815260208101848484011115610b0357610b02610a1b565b5b610b0e848285610ac7565b509392505050565b5f82601f830112610b2a57610b29610a17565b5b8135610b3a848260208601610ad5565b91505092915050565b5f60208284031215610b5857610b5761076a565b5b5f82013567ffffffffffffffff811115610b7557610b7461076e565b5b610b8184828501610b16565b91505092915050565b5f81519050919050565b5f82825260208201905092915050565b5f819050602082019050919050565b5f82825260208201905092915050565b5f610bcd8261095f565b610bd78185610bb3565b9350610be7818560208601610979565b610bf081610987565b840191505092915050565b5f610c068383610bc3565b905092915050565b5f602082019050919050565b5f610c2482610b8a565b610c2e8185610b94565b935083602082028501610c4085610ba4565b805f5b85811015610c7b5784840389528151610c5c8582610bfb565b9450610c6783610c0e565b925060208a01995050600181019050610c43565b50829750879550505050505092915050565b5f6020820190508181035f830152610ca58184610c1a565b905092915050565b7f4e69657072617769646c6f777920696e64656b73206f70636a690000000000005f82015250565b5f610ce1601a83610969565b9150610cec82610cad565b602082019050919050565b5f6020820190508181035f830152610d0e81610cd5565b9050919050565b7f4e487b71000000000000000000000000000000000000000000000000000000005f52601160045260245ffd5b5f610d4c8261082a565b9150610d578361082a565b9250828203905081811115610d6f57610d6e610d15565b5b92915050565b5f610d7f8261082a565b9150610d8a8361082a565b9250828201905080821115610da257610da1610d15565b5b92915050565b7f4e487b71000000000000000000000000000000000000000000000000000000005f52603260045260245ffd5b7f4e487b71000000000000000000000000000000000000000000000000000000005f52602260045260245ffd5b5f6002820490506001821680610e1957607f821691505b602082108103610e2c57610e2b610dd5565b5b50919050565b5f81549050610e4081610e02565b9050919050565b5f819050815f5260205f209050919050565b5f819050815f5260205f209050919050565b5f6020601f8301049050919050565b5f82821b905092915050565b5f60088302610eb57fffffffffffffffffffffffffffffffffffffffffffffffffffffffffffffffff82610e7a565b610ebf8683610e7a565b95508019841693508086168417925050509392505050565b5f819050919050565b5f610efa610ef5610ef08461082a565b610ed7565b61082a565b9050919050565b5f819050919050565b610f1383610ee0565b610f27610f1f82610f01565b848454610e86565b825550505050565b5f90565b610f3b610f2f565b610f46818484610f0a565b505050565b5b81811015610f6957610f5e5f82610f33565b600181019050610f4c565b5050565b601f821115610fae57610f7f81610e47565b610f8884610e6b565b81016020851015610f97578190505b610fab610fa385610e6b565b830182610f4b565b50505b505050565b5f82821c905092915050565b5f610fce5f1984600802610fb3565b1980831691505092915050565b5f610fe68383610fbf565b9150826002028217905092915050565b8181036110045750506110d9565b61100d82610e32565b67ffffffffffffffff81111561102657611025610a1f565b5b6110308254610e02565b61103b828285610f6d565b5f601f831160018114611068575f8415611056578287015490505b6110608582610fdb565b8655506110d2565b601f19841661107687610e59565b965061108186610e47565b5f5b828110156110a857848901548255600182019150600185019450602081019050611083565b868310156110c557848901546110c1601f891682610fbf565b8355505b6001600288020188555050505b5050505050505b565b7f4e487b71000000000000000000000000000000000000000000000000000000005f52603160045260245ffd5b6111118261095f565b67ffffffffffffffff81111561112a57611129610a1f565b5b6111348254610e02565b61113f828285610f6d565b5f60209050601f831160018114611170575f841561115e578287015190505b6111688582610fdb565b8655506111cf565b601f19841661117e86610e47565b5f5b828110156111a557848901518255600182019150602085019450602081019050611180565b868310156111c257848901516111be601f891682610fbf565b8355505b6001600288020188555050505b505050505050565b7f53656c656374207269676874206f7074696f6e000000000000000000000000005f82015250565b5f61120b601383610969565b9150611216826111d7565b602082019050919050565b5f6020820190508181035f830152611238816111ff565b9050919050565b7f5520616c726561647920766f74656400000000000000000000000000000000005f82015250565b5f611273600f83610969565b915061127e8261123f565b602082019050919050565b5f6020820190508181035f8301526112a081611267565b9050919050565b5f6112b18261082a565b91507fffffffffffffffffffffffffffffffffffffffffffffffffffffffffffffffff82036112e3576112e2610d15565b5b60018201905091905056fea2646970667358221220cb19aca3b5fe1b7e7f785d1664d402ef1a86acb76884305d94f89fbbfdd6f2f864736f6c634300081a0033",
					"opcodes": "PUSH1 0x80 PUSH1 0x40 MSTORE CALLVALUE DUP1 ISZERO PUSH1 0xE JUMPI PUSH0 DUP1 REVERT JUMPDEST POP PUSH2 0x1324 DUP1 PUSH2 0x1C PUSH0 CODECOPY PUSH0 RETURN INVALID PUSH1 0x80 PUSH1 0x40 MSTORE CALLVALUE DUP1 ISZERO PUSH2 0xF JUMPI PUSH0 DUP1 REVERT JUMPDEST POP PUSH1 0x4 CALLDATASIZE LT PUSH2 0x91 JUMPI PUSH0 CALLDATALOAD PUSH1 0xE0 SHR DUP1 PUSH4 0x5DF81330 GT PUSH2 0x64 JUMPI DUP1 PUSH4 0x5DF81330 EQ PUSH2 0x12F JUMPI DUP1 PUSH4 0x8778B27D EQ PUSH2 0x15F JUMPI DUP1 PUSH4 0x9242850A EQ PUSH2 0x17D JUMPI DUP1 PUSH4 0x9AC28F8C EQ PUSH2 0x199 JUMPI DUP1 PUSH4 0xFD4A77F1 EQ PUSH2 0x1B7 JUMPI PUSH2 0x91 JUMP JUMPDEST DUP1 PUSH4 0x9EEF43E EQ PUSH2 0x95 JUMPI DUP1 PUSH4 0x32748FDB EQ PUSH2 0xC5 JUMPI DUP1 PUSH4 0x357DA247 EQ PUSH2 0xE1 JUMPI DUP1 PUSH4 0x409E2205 EQ PUSH2 0xFF JUMPI JUMPDEST PUSH0 DUP1 REVERT JUMPDEST PUSH2 0xAF PUSH1 0x4 DUP1 CALLDATASIZE SUB DUP2 ADD SWAP1 PUSH2 0xAA SWAP2 SWAP1 PUSH2 0x7CC JUMP JUMPDEST PUSH2 0x1D3 JUMP JUMPDEST PUSH1 0x40 MLOAD PUSH2 0xBC SWAP2 SWAP1 PUSH2 0x811 JUMP JUMPDEST PUSH1 0x40 MLOAD DUP1 SWAP2 SUB SWAP1 RETURN JUMPDEST PUSH2 0xDF PUSH1 0x4 DUP1 CALLDATASIZE SUB DUP2 ADD SWAP1 PUSH2 0xDA SWAP2 SWAP1 PUSH2 0x85D JUMP JUMPDEST PUSH2 0x1F0 JUMP JUMPDEST STOP JUMPDEST PUSH2 0xE9 PUSH2 0x336 JUMP JUMPDEST PUSH1 0x40 MLOAD PUSH2 0xF6 SWAP2 SWAP1 PUSH2 0x93F JUMP JUMPDEST PUSH1 0x40 MLOAD DUP1 SWAP2 SUB SWAP1 RETURN JUMPDEST PUSH2 0x119 PUSH1 0x4 DUP1 CALLDATASIZE SUB DUP2 ADD SWAP1 PUSH2 0x114 SWAP2 SWAP1 PUSH2 0x85D JUMP JUMPDEST PUSH2 0x3DC JUMP JUMPDEST PUSH1 0x40 MLOAD PUSH2 0x126 SWAP2 SWAP1 PUSH2 0x9CF JUMP JUMPDEST PUSH1 0x40 MLOAD DUP1 SWAP2 SUB SWAP1 RETURN JUMPDEST PUSH2 0x149 PUSH1 0x4 DUP1 CALLDATASIZE SUB DUP2 ADD SWAP1 PUSH2 0x144 SWAP2 SWAP1 PUSH2 0x85D JUMP JUMPDEST PUSH2 0x481 JUMP JUMPDEST PUSH1 0x40 MLOAD PUSH2 0x156 SWAP2 SWAP1 PUSH2 0x9FE JUMP JUMPDEST PUSH1 0x40 MLOAD DUP1 SWAP2 SUB SWAP1 RETURN JUMPDEST PUSH2 0x167 PUSH2 0x496 JUMP JUMPDEST PUSH1 0x40 MLOAD PUSH2 0x174 SWAP2 SWAP1 PUSH2 0x9FE JUMP JUMPDEST PUSH1 0x40 MLOAD DUP1 SWAP2 SUB SWAP1 RETURN JUMPDEST PUSH2 0x197 PUSH1 0x4 DUP1 CALLDATASIZE SUB DUP2 ADD SWAP1 PUSH2 0x192 SWAP2 SWAP1 PUSH2 0xB43 JUMP JUMPDEST PUSH2 0x49C JUMP JUMPDEST STOP JUMPDEST PUSH2 0x1A1 PUSH2 0x4D0 JUMP JUMPDEST PUSH1 0x40 MLOAD PUSH2 0x1AE SWAP2 SWAP1 PUSH2 0xC8D JUMP JUMPDEST PUSH1 0x40 MLOAD DUP1 SWAP2 SUB SWAP1 RETURN JUMPDEST PUSH2 0x1D1 PUSH1 0x4 DUP1 CALLDATASIZE SUB DUP2 ADD SWAP1 PUSH2 0x1CC SWAP2 SWAP1 PUSH2 0x85D JUMP JUMPDEST PUSH2 0x5A3 JUMP JUMPDEST STOP JUMPDEST PUSH1 0x2 PUSH1 0x20 MSTORE DUP1 PUSH0 MSTORE PUSH1 0x40 PUSH0 KECCAK256 PUSH0 SWAP2 POP SLOAD SWAP1 PUSH2 0x100 EXP SWAP1 DIV PUSH1 0xFF AND DUP2 JUMP JUMPDEST PUSH0 DUP1 SLOAD SWAP1 POP DUP2 LT PUSH2 0x236 JUMPI PUSH1 0x40 MLOAD PUSH32 0x8C379A000000000000000000000000000000000000000000000000000000000 DUP2 MSTORE PUSH1 0x4 ADD PUSH2 0x22D SWAP1 PUSH2 0xCF7 JUMP JUMPDEST PUSH1 0x40 MLOAD DUP1 SWAP2 SUB SWAP1 REVERT JUMPDEST PUSH0 DUP2 SWAP1 POP JUMPDEST PUSH1 0x1 PUSH0 DUP1 SLOAD SWAP1 POP PUSH2 0x24C SWAP2 SWAP1 PUSH2 0xD42 JUMP JUMPDEST DUP2 LT ISZERO PUSH2 0x2E2 JUMPI PUSH0 PUSH1 0x1 DUP3 PUSH2 0x261 SWAP2 SWAP1 PUSH2 0xD75 JUMP JUMPDEST DUP2 SLOAD DUP2 LT PUSH2 0x272 JUMPI PUSH2 0x271 PUSH2 0xDA8 JUMP JUMPDEST JUMPDEST SWAP1 PUSH0 MSTORE PUSH1 0x20 PUSH0 KECCAK256 ADD PUSH0 DUP3 DUP2 SLOAD DUP2 LT PUSH2 0x28D JUMPI PUSH2 0x28C PUSH2 0xDA8 JUMP JUMPDEST JUMPDEST SWAP1 PUSH0 MSTORE PUSH1 0x20 PUSH0 KECCAK256 ADD SWAP1 DUP2 PUSH2 0x2A1 SWAP2 SWAP1 PUSH2 0xFF6 JUMP JUMPDEST POP PUSH1 0x1 PUSH0 PUSH1 0x1 DUP4 PUSH2 0x2B2 SWAP2 SWAP1 PUSH2 0xD75 JUMP JUMPDEST DUP2 MSTORE PUSH1 0x20 ADD SWAP1 DUP2 MSTORE PUSH1 0x20 ADD PUSH0 KECCAK256 SLOAD PUSH1 0x1 PUSH0 DUP4 DUP2 MSTORE PUSH1 0x20 ADD SWAP1 DUP2 MSTORE PUSH1 0x20 ADD PUSH0 KECCAK256 DUP2 SWAP1 SSTORE POP DUP1 DUP1 PUSH1 0x1 ADD SWAP2 POP POP PUSH2 0x23B JUMP JUMPDEST POP PUSH0 DUP1 SLOAD DUP1 PUSH2 0x2F4 JUMPI PUSH2 0x2F3 PUSH2 0x10DB JUMP JUMPDEST JUMPDEST PUSH1 0x1 SWAP1 SUB DUP2 DUP2 SWAP1 PUSH0 MSTORE PUSH1 0x20 PUSH0 KECCAK256 ADD PUSH0 PUSH2 0x30D SWAP2 SWAP1 PUSH2 0x709 JUMP JUMPDEST SWAP1 SSTORE PUSH1 0x1 PUSH0 PUSH1 0x1 PUSH0 DUP1 SLOAD SWAP1 POP PUSH2 0x323 SWAP2 SWAP1 PUSH2 0xD42 JUMP JUMPDEST DUP2 MSTORE PUSH1 0x20 ADD SWAP1 DUP2 MSTORE PUSH1 0x20 ADD PUSH0 KECCAK256 PUSH0 SWAP1 SSTORE POP JUMP JUMPDEST PUSH1 0x60 PUSH0 DUP1 DUP1 SLOAD SWAP1 POP PUSH8 0xFFFFFFFFFFFFFFFF DUP2 GT ISZERO PUSH2 0x357 JUMPI PUSH2 0x356 PUSH2 0xA1F JUMP JUMPDEST JUMPDEST PUSH1 0x40 MLOAD SWAP1 DUP1 DUP3 MSTORE DUP1 PUSH1 0x20 MUL PUSH1 0x20 ADD DUP3 ADD PUSH1 0x40 MSTORE DUP1 ISZERO PUSH2 0x385 JUMPI DUP2 PUSH1 0x20 ADD PUSH1 0x20 DUP3 MUL DUP1 CALLDATASIZE DUP4 CALLDATACOPY DUP1 DUP3 ADD SWAP2 POP POP SWAP1 POP JUMPDEST POP SWAP1 POP PUSH0 JUMPDEST PUSH0 DUP1 SLOAD SWAP1 POP DUP2 LT ISZERO PUSH2 0x3D4 JUMPI PUSH1 0x1 PUSH0 DUP3 DUP2 MSTORE PUSH1 0x20 ADD SWAP1 DUP2 MSTORE PUSH1 0x20 ADD PUSH0 KECCAK256 SLOAD DUP3 DUP3 DUP2 MLOAD DUP2 LT PUSH2 0x3BB JUMPI PUSH2 0x3BA PUSH2 0xDA8 JUMP JUMPDEST JUMPDEST PUSH1 0x20 MUL PUSH1 0x20 ADD ADD DUP2 DUP2 MSTORE POP POP DUP1 DUP1 PUSH1 0x1 ADD SWAP2 POP POP PUSH2 0x38A JUMP JUMPDEST POP DUP1 SWAP2 POP POP SWAP1 JUMP JUMPDEST PUSH0 DUP2 DUP2 SLOAD DUP2 LT PUSH2 0x3EA JUMPI PUSH0 DUP1 REVERT JUMPDEST SWAP1 PUSH0 MSTORE PUSH1 0x20 PUSH0 KECCAK256 ADD PUSH0 SWAP2 POP SWAP1 POP DUP1 SLOAD PUSH2 0x402 SWAP1 PUSH2 0xE02 JUMP JUMPDEST DUP1 PUSH1 0x1F ADD PUSH1 0x20 DUP1 SWAP2 DIV MUL PUSH1 0x20 ADD PUSH1 0x40 MLOAD SWAP1 DUP2 ADD PUSH1 0x40 MSTORE DUP1 SWAP3 SWAP2 SWAP1 DUP2 DUP2 MSTORE PUSH1 0x20 ADD DUP3 DUP1 SLOAD PUSH2 0x42E SWAP1 PUSH2 0xE02 JUMP JUMPDEST DUP1 ISZERO PUSH2 0x479 JUMPI DUP1 PUSH1 0x1F LT PUSH2 0x450 JUMPI PUSH2 0x100 DUP1 DUP4 SLOAD DIV MUL DUP4 MSTORE SWAP2 PUSH1 0x20 ADD SWAP2 PUSH2 0x479 JUMP JUMPDEST DUP3 ADD SWAP2 SWAP1 PUSH0 MSTORE PUSH1 0x20 PUSH0 KECCAK256 SWAP1 JUMPDEST DUP2 SLOAD DUP2 MSTORE SWAP1 PUSH1 0x1 ADD SWAP1 PUSH1 0x20 ADD DUP1 DUP4 GT PUSH2 0x45C JUMPI DUP3 SWAP1 SUB PUSH1 0x1F AND DUP3 ADD SWAP2 JUMPDEST POP POP POP POP POP DUP2 JUMP JUMPDEST PUSH1 0x1 PUSH1 0x20 MSTORE DUP1 PUSH0 MSTORE PUSH1 0x40 PUSH0 KECCAK256 PUSH0 SWAP2 POP SWAP1 POP SLOAD DUP2 JUMP JUMPDEST PUSH1 0x3 SLOAD DUP2 JUMP JUMPDEST PUSH0 DUP2 SWAP1 DUP1 PUSH1 0x1 DUP2 SLOAD ADD DUP1 DUP3 SSTORE DUP1 SWAP2 POP POP PUSH1 0x1 SWAP1 SUB SWAP1 PUSH0 MSTORE PUSH1 0x20 PUSH0 KECCAK256 ADD PUSH0 SWAP1 SWAP2 SWAP1 SWAP2 SWAP1 SWAP2 POP SWAP1 DUP2 PUSH2 0x4CC SWAP2 SWAP1 PUSH2 0x1108 JUMP JUMPDEST POP POP JUMP JUMPDEST PUSH1 0x60 PUSH0 DUP1 SLOAD DUP1 PUSH1 0x20 MUL PUSH1 0x20 ADD PUSH1 0x40 MLOAD SWAP1 DUP2 ADD PUSH1 0x40 MSTORE DUP1 SWAP3 SWAP2 SWAP1 DUP2 DUP2 MSTORE PUSH1 0x20 ADD PUSH0 SWAP1 JUMPDEST DUP3 DUP3 LT ISZERO PUSH2 0x59A JUMPI DUP4 DUP3 SWAP1 PUSH0 MSTORE PUSH1 0x20 PUSH0 KECCAK256 ADD DUP1 SLOAD PUSH2 0x50F SWAP1 PUSH2 0xE02 JUMP JUMPDEST DUP1 PUSH1 0x1F ADD PUSH1 0x20 DUP1 SWAP2 DIV MUL PUSH1 0x20 ADD PUSH1 0x40 MLOAD SWAP1 DUP2 ADD PUSH1 0x40 MSTORE DUP1 SWAP3 SWAP2 SWAP1 DUP2 DUP2 MSTORE PUSH1 0x20 ADD DUP3 DUP1 SLOAD PUSH2 0x53B SWAP1 PUSH2 0xE02 JUMP JUMPDEST DUP1 ISZERO PUSH2 0x586 JUMPI DUP1 PUSH1 0x1F LT PUSH2 0x55D JUMPI PUSH2 0x100 DUP1 DUP4 SLOAD DIV MUL DUP4 MSTORE SWAP2 PUSH1 0x20 ADD SWAP2 PUSH2 0x586 JUMP JUMPDEST DUP3 ADD SWAP2 SWAP1 PUSH0 MSTORE PUSH1 0x20 PUSH0 KECCAK256 SWAP1 JUMPDEST DUP2 SLOAD DUP2 MSTORE SWAP1 PUSH1 0x1 ADD SWAP1 PUSH1 0x20 ADD DUP1 DUP4 GT PUSH2 0x569 JUMPI DUP3 SWAP1 SUB PUSH1 0x1F AND DUP3 ADD SWAP2 JUMPDEST POP POP POP POP POP DUP2 MSTORE PUSH1 0x20 ADD SWAP1 PUSH1 0x1 ADD SWAP1 PUSH2 0x4F2 JUMP JUMPDEST POP POP POP POP SWAP1 POP SWAP1 JUMP JUMPDEST PUSH0 DUP1 SLOAD SWAP1 POP DUP2 LT PUSH2 0x5E9 JUMPI PUSH1 0x40 MLOAD PUSH32 0x8C379A000000000000000000000000000000000000000000000000000000000 DUP2 MSTORE PUSH1 0x4 ADD PUSH2 0x5E0 SWAP1 PUSH2 0x1221 JUMP JUMPDEST PUSH1 0x40 MLOAD DUP1 SWAP2 SUB SWAP1 REVERT JUMPDEST PUSH1 0x2 PUSH0 CALLER PUSH20 0xFFFFFFFFFFFFFFFFFFFFFFFFFFFFFFFFFFFFFFFF AND PUSH20 0xFFFFFFFFFFFFFFFFFFFFFFFFFFFFFFFFFFFFFFFF AND DUP2 MSTORE PUSH1 0x20 ADD SWAP1 DUP2 MSTORE PUSH1 0x20 ADD PUSH0 KECCAK256 PUSH0 SWAP1 SLOAD SWAP1 PUSH2 0x100 EXP SWAP1 DIV PUSH1 0xFF AND ISZERO PUSH2 0x673 JUMPI PUSH1 0x40 MLOAD PUSH32 0x8C379A000000000000000000000000000000000000000000000000000000000 DUP2 MSTORE PUSH1 0x4 ADD PUSH2 0x66A SWAP1 PUSH2 0x1289 JUMP JUMPDEST PUSH1 0x40 MLOAD DUP1 SWAP2 SUB SWAP1 REVERT JUMPDEST PUSH1 0x1 DUP1 PUSH0 DUP4 DUP2 MSTORE PUSH1 0x20 ADD SWAP1 DUP2 MSTORE PUSH1 0x20 ADD PUSH0 KECCAK256 PUSH0 DUP3 DUP3 SLOAD PUSH2 0x693 SWAP2 SWAP1 PUSH2 0xD75 JUMP JUMPDEST SWAP3 POP POP DUP2 SWAP1 SSTORE POP PUSH1 0x1 PUSH1 0x2 PUSH0 CALLER PUSH20 0xFFFFFFFFFFFFFFFFFFFFFFFFFFFFFFFFFFFFFFFF AND PUSH20 0xFFFFFFFFFFFFFFFFFFFFFFFFFFFFFFFFFFFFFFFF AND DUP2 MSTORE PUSH1 0x20 ADD SWAP1 DUP2 MSTORE PUSH1 0x20 ADD PUSH0 KECCAK256 PUSH0 PUSH2 0x100 EXP DUP2 SLOAD DUP2 PUSH1 0xFF MUL NOT AND SWAP1 DUP4 ISZERO ISZERO MUL OR SWAP1 SSTORE POP PUSH1 0x3 PUSH0 DUP2 SLOAD DUP1 SWAP3 SWAP2 SWAP1 PUSH2 0x701 SWAP1 PUSH2 0x12A7 JUMP JUMPDEST SWAP2 SWAP1 POP SSTORE POP POP JUMP JUMPDEST POP DUP1 SLOAD PUSH2 0x715 SWAP1 PUSH2 0xE02 JUMP JUMPDEST PUSH0 DUP3 SSTORE DUP1 PUSH1 0x1F LT PUSH2 0x726 JUMPI POP PUSH2 0x743 JUMP JUMPDEST PUSH1 0x1F ADD PUSH1 0x20 SWAP1 DIV SWAP1 PUSH0 MSTORE PUSH1 0x20 PUSH0 KECCAK256 SWAP1 DUP2 ADD SWAP1 PUSH2 0x742 SWAP2 SWAP1 PUSH2 0x746 JUMP JUMPDEST JUMPDEST POP JUMP JUMPDEST JUMPDEST DUP1 DUP3 GT ISZERO PUSH2 0x75D JUMPI PUSH0 DUP2 PUSH0 SWAP1 SSTORE POP PUSH1 0x1 ADD PUSH2 0x747 JUMP JUMPDEST POP SWAP1 JUMP JUMPDEST PUSH0 PUSH1 0x40 MLOAD SWAP1 POP SWAP1 JUMP JUMPDEST PUSH0 DUP1 REVERT JUMPDEST PUSH0 DUP1 REVERT JUMPDEST PUSH0 PUSH20 0xFFFFFFFFFFFFFFFFFFFFFFFFFFFFFFFFFFFFFFFF DUP3 AND SWAP1 POP SWAP2 SWAP1 POP JUMP JUMPDEST PUSH0 PUSH2 0x79B DUP3 PUSH2 0x772 JUMP JUMPDEST SWAP1 POP SWAP2 SWAP1 POP JUMP JUMPDEST PUSH2 0x7AB DUP2 PUSH2 0x791 JUMP JUMPDEST DUP2 EQ PUSH2 0x7B5 JUMPI PUSH0 DUP1 REVERT JUMPDEST POP JUMP JUMPDEST PUSH0 DUP2 CALLDATALOAD SWAP1 POP PUSH2 0x7C6 DUP2 PUSH2 0x7A2 JUMP JUMPDEST SWAP3 SWAP2 POP POP JUMP JUMPDEST PUSH0 PUSH1 0x20 DUP3 DUP5 SUB SLT ISZERO PUSH2 0x7E1 JUMPI PUSH2 0x7E0 PUSH2 0x76A JUMP JUMPDEST JUMPDEST PUSH0 PUSH2 0x7EE DUP5 DUP3 DUP6 ADD PUSH2 0x7B8 JUMP JUMPDEST SWAP2 POP POP SWAP3 SWAP2 POP POP JUMP JUMPDEST PUSH0 DUP2 ISZERO ISZERO SWAP1 POP SWAP2 SWAP1 POP JUMP JUMPDEST PUSH2 0x80B DUP2 PUSH2 0x7F7 JUMP JUMPDEST DUP3 MSTORE POP POP JUMP JUMPDEST PUSH0 PUSH1 0x20 DUP3 ADD SWAP1 POP PUSH2 0x824 PUSH0 DUP4 ADD DUP5 PUSH2 0x802 JUMP JUMPDEST SWAP3 SWAP2 POP POP JUMP JUMPDEST PUSH0 DUP2 SWAP1 POP SWAP2 SWAP1 POP JUMP JUMPDEST PUSH2 0x83C DUP2 PUSH2 0x82A JUMP JUMPDEST DUP2 EQ PUSH2 0x846 JUMPI PUSH0 DUP1 REVERT JUMPDEST POP JUMP JUMPDEST PUSH0 DUP2 CALLDATALOAD SWAP1 POP PUSH2 0x857 DUP2 PUSH2 0x833 JUMP JUMPDEST SWAP3 SWAP2 POP POP JUMP JUMPDEST PUSH0 PUSH1 0x20 DUP3 DUP5 SUB SLT ISZERO PUSH2 0x872 JUMPI PUSH2 0x871 PUSH2 0x76A JUMP JUMPDEST JUMPDEST PUSH0 PUSH2 0x87F DUP5 DUP3 DUP6 ADD PUSH2 0x849 JUMP JUMPDEST SWAP2 POP POP SWAP3 SWAP2 POP POP JUMP JUMPDEST PUSH0 DUP2 MLOAD SWAP1 POP SWAP2 SWAP1 POP JUMP JUMPDEST PUSH0 DUP3 DUP3 MSTORE PUSH1 0x20 DUP3 ADD SWAP1 POP SWAP3 SWAP2 POP POP JUMP JUMPDEST PUSH0 DUP2 SWAP1 POP PUSH1 0x20 DUP3 ADD SWAP1 POP SWAP2 SWAP1 POP JUMP JUMPDEST PUSH2 0x8BA DUP2 PUSH2 0x82A JUMP JUMPDEST DUP3 MSTORE POP POP JUMP JUMPDEST PUSH0 PUSH2 0x8CB DUP4 DUP4 PUSH2 0x8B1 JUMP JUMPDEST PUSH1 0x20 DUP4 ADD SWAP1 POP SWAP3 SWAP2 POP POP JUMP JUMPDEST PUSH0 PUSH1 0x20 DUP3 ADD SWAP1 POP SWAP2 SWAP1 POP JUMP JUMPDEST PUSH0 PUSH2 0x8ED DUP3 PUSH2 0x888 JUMP JUMPDEST PUSH2 0x8F7 DUP2 DUP6 PUSH2 0x892 JUMP JUMPDEST SWAP4 POP PUSH2 0x902 DUP4 PUSH2 0x8A2 JUMP JUMPDEST DUP1 PUSH0 JUMPDEST DUP4 DUP2 LT ISZERO PUSH2 0x932 JUMPI DUP2 MLOAD PUSH2 0x919 DUP9 DUP3 PUSH2 0x8C0 JUMP JUMPDEST SWAP8 POP PUSH2 0x924 DUP4 PUSH2 0x8D7 JUMP JUMPDEST SWAP3 POP POP PUSH1 0x1 DUP2 ADD SWAP1 POP PUSH2 0x905 JUMP JUMPDEST POP DUP6 SWAP4 POP POP POP POP SWAP3 SWAP2 POP POP JUMP JUMPDEST PUSH0 PUSH1 0x20 DUP3 ADD SWAP1 POP DUP2 DUP2 SUB PUSH0 DUP4 ADD MSTORE PUSH2 0x957 DUP2 DUP5 PUSH2 0x8E3 JUMP JUMPDEST SWAP1 POP SWAP3 SWAP2 POP POP JUMP JUMPDEST PUSH0 DUP2 MLOAD SWAP1 POP SWAP2 SWAP1 POP JUMP JUMPDEST PUSH0 DUP3 DUP3 MSTORE PUSH1 0x20 DUP3 ADD SWAP1 POP SWAP3 SWAP2 POP POP JUMP JUMPDEST DUP3 DUP2 DUP4 MCOPY PUSH0 DUP4 DUP4 ADD MSTORE POP POP POP JUMP JUMPDEST PUSH0 PUSH1 0x1F NOT PUSH1 0x1F DUP4 ADD AND SWAP1 POP SWAP2 SWAP1 POP JUMP JUMPDEST PUSH0 PUSH2 0x9A1 DUP3 PUSH2 0x95F JUMP JUMPDEST PUSH2 0x9AB DUP2 DUP6 PUSH2 0x969 JUMP JUMPDEST SWAP4 POP PUSH2 0x9BB DUP2 DUP6 PUSH1 0x20 DUP7 ADD PUSH2 0x979 JUMP JUMPDEST PUSH2 0x9C4 DUP2 PUSH2 0x987 JUMP JUMPDEST DUP5 ADD SWAP2 POP POP SWAP3 SWAP2 POP POP JUMP JUMPDEST PUSH0 PUSH1 0x20 DUP3 ADD SWAP1 POP DUP2 DUP2 SUB PUSH0 DUP4 ADD MSTORE PUSH2 0x9E7 DUP2 DUP5 PUSH2 0x997 JUMP JUMPDEST SWAP1 POP SWAP3 SWAP2 POP POP JUMP JUMPDEST PUSH2 0x9F8 DUP2 PUSH2 0x82A JUMP JUMPDEST DUP3 MSTORE POP POP JUMP JUMPDEST PUSH0 PUSH1 0x20 DUP3 ADD SWAP1 POP PUSH2 0xA11 PUSH0 DUP4 ADD DUP5 PUSH2 0x9EF JUMP JUMPDEST SWAP3 SWAP2 POP POP JUMP JUMPDEST PUSH0 DUP1 REVERT JUMPDEST PUSH0 DUP1 REVERT JUMPDEST PUSH32 0x4E487B7100000000000000000000000000000000000000000000000000000000 PUSH0 MSTORE PUSH1 0x41 PUSH1 0x4 MSTORE PUSH1 0x24 PUSH0 REVERT JUMPDEST PUSH2 0xA55 DUP3 PUSH2 0x987 JUMP JUMPDEST DUP2 ADD DUP2 DUP2 LT PUSH8 0xFFFFFFFFFFFFFFFF DUP3 GT OR ISZERO PUSH2 0xA74 JUMPI PUSH2 0xA73 PUSH2 0xA1F JUMP JUMPDEST JUMPDEST DUP1 PUSH1 0x40 MSTORE POP POP POP JUMP JUMPDEST PUSH0 PUSH2 0xA86 PUSH2 0x761 JUMP JUMPDEST SWAP1 POP PUSH2 0xA92 DUP3 DUP3 PUSH2 0xA4C JUMP JUMPDEST SWAP2 SWAP1 POP JUMP JUMPDEST PUSH0 PUSH8 0xFFFFFFFFFFFFFFFF DUP3 GT ISZERO PUSH2 0xAB1 JUMPI PUSH2 0xAB0 PUSH2 0xA1F JUMP JUMPDEST JUMPDEST PUSH2 0xABA DUP3 PUSH2 0x987 JUMP JUMPDEST SWAP1 POP PUSH1 0x20 DUP2 ADD SWAP1 POP SWAP2 SWAP1 POP JUMP JUMPDEST DUP3 DUP2 DUP4 CALLDATACOPY PUSH0 DUP4 DUP4 ADD MSTORE POP POP POP JUMP JUMPDEST PUSH0 PUSH2 0xAE7 PUSH2 0xAE2 DUP5 PUSH2 0xA97 JUMP JUMPDEST PUSH2 0xA7D JUMP JUMPDEST SWAP1 POP DUP3 DUP2 MSTORE PUSH1 0x20 DUP2 ADD DUP5 DUP5 DUP5 ADD GT ISZERO PUSH2 0xB03 JUMPI PUSH2 0xB02 PUSH2 0xA1B JUMP JUMPDEST JUMPDEST PUSH2 0xB0E DUP5 DUP3 DUP6 PUSH2 0xAC7 JUMP JUMPDEST POP SWAP4 SWAP3 POP POP POP JUMP JUMPDEST PUSH0 DUP3 PUSH1 0x1F DUP4 ADD SLT PUSH2 0xB2A JUMPI PUSH2 0xB29 PUSH2 0xA17 JUMP JUMPDEST JUMPDEST DUP2 CALLDATALOAD PUSH2 0xB3A DUP5 DUP3 PUSH1 0x20 DUP7 ADD PUSH2 0xAD5 JUMP JUMPDEST SWAP2 POP POP SWAP3 SWAP2 POP POP JUMP JUMPDEST PUSH0 PUSH1 0x20 DUP3 DUP5 SUB SLT ISZERO PUSH2 0xB58 JUMPI PUSH2 0xB57 PUSH2 0x76A JUMP JUMPDEST JUMPDEST PUSH0 DUP3 ADD CALLDATALOAD PUSH8 0xFFFFFFFFFFFFFFFF DUP2 GT ISZERO PUSH2 0xB75 JUMPI PUSH2 0xB74 PUSH2 0x76E JUMP JUMPDEST JUMPDEST PUSH2 0xB81 DUP5 DUP3 DUP6 ADD PUSH2 0xB16 JUMP JUMPDEST SWAP2 POP POP SWAP3 SWAP2 POP POP JUMP JUMPDEST PUSH0 DUP2 MLOAD SWAP1 POP SWAP2 SWAP1 POP JUMP JUMPDEST PUSH0 DUP3 DUP3 MSTORE PUSH1 0x20 DUP3 ADD SWAP1 POP SWAP3 SWAP2 POP POP JUMP JUMPDEST PUSH0 DUP2 SWAP1 POP PUSH1 0x20 DUP3 ADD SWAP1 POP SWAP2 SWAP1 POP JUMP JUMPDEST PUSH0 DUP3 DUP3 MSTORE PUSH1 0x20 DUP3 ADD SWAP1 POP SWAP3 SWAP2 POP POP JUMP JUMPDEST PUSH0 PUSH2 0xBCD DUP3 PUSH2 0x95F JUMP JUMPDEST PUSH2 0xBD7 DUP2 DUP6 PUSH2 0xBB3 JUMP JUMPDEST SWAP4 POP PUSH2 0xBE7 DUP2 DUP6 PUSH1 0x20 DUP7 ADD PUSH2 0x979 JUMP JUMPDEST PUSH2 0xBF0 DUP2 PUSH2 0x987 JUMP JUMPDEST DUP5 ADD SWAP2 POP POP SWAP3 SWAP2 POP POP JUMP JUMPDEST PUSH0 PUSH2 0xC06 DUP4 DUP4 PUSH2 0xBC3 JUMP JUMPDEST SWAP1 POP SWAP3 SWAP2 POP POP JUMP JUMPDEST PUSH0 PUSH1 0x20 DUP3 ADD SWAP1 POP SWAP2 SWAP1 POP JUMP JUMPDEST PUSH0 PUSH2 0xC24 DUP3 PUSH2 0xB8A JUMP JUMPDEST PUSH2 0xC2E DUP2 DUP6 PUSH2 0xB94 JUMP JUMPDEST SWAP4 POP DUP4 PUSH1 0x20 DUP3 MUL DUP6 ADD PUSH2 0xC40 DUP6 PUSH2 0xBA4 JUMP JUMPDEST DUP1 PUSH0 JUMPDEST DUP6 DUP2 LT ISZERO PUSH2 0xC7B JUMPI DUP5 DUP5 SUB DUP10 MSTORE DUP2 MLOAD PUSH2 0xC5C DUP6 DUP3 PUSH2 0xBFB JUMP JUMPDEST SWAP5 POP PUSH2 0xC67 DUP4 PUSH2 0xC0E JUMP JUMPDEST SWAP3 POP PUSH1 0x20 DUP11 ADD SWAP10 POP POP PUSH1 0x1 DUP2 ADD SWAP1 POP PUSH2 0xC43 JUMP JUMPDEST POP DUP3 SWAP8 POP DUP8 SWAP6 POP POP POP POP POP POP SWAP3 SWAP2 POP POP JUMP JUMPDEST PUSH0 PUSH1 0x20 DUP3 ADD SWAP1 POP DUP2 DUP2 SUB PUSH0 DUP4 ADD MSTORE PUSH2 0xCA5 DUP2 DUP5 PUSH2 0xC1A JUMP JUMPDEST SWAP1 POP SWAP3 SWAP2 POP POP JUMP JUMPDEST PUSH32 0x4E69657072617769646C6F777920696E64656B73206F70636A69000000000000 PUSH0 DUP3 ADD MSTORE POP JUMP JUMPDEST PUSH0 PUSH2 0xCE1 PUSH1 0x1A DUP4 PUSH2 0x969 JUMP JUMPDEST SWAP2 POP PUSH2 0xCEC DUP3 PUSH2 0xCAD JUMP JUMPDEST PUSH1 0x20 DUP3 ADD SWAP1 POP SWAP2 SWAP1 POP JUMP JUMPDEST PUSH0 PUSH1 0x20 DUP3 ADD SWAP1 POP DUP2 DUP2 SUB PUSH0 DUP4 ADD MSTORE PUSH2 0xD0E DUP2 PUSH2 0xCD5 JUMP JUMPDEST SWAP1 POP SWAP2 SWAP1 POP JUMP JUMPDEST PUSH32 0x4E487B7100000000000000000000000000000000000000000000000000000000 PUSH0 MSTORE PUSH1 0x11 PUSH1 0x4 MSTORE PUSH1 0x24 PUSH0 REVERT JUMPDEST PUSH0 PUSH2 0xD4C DUP3 PUSH2 0x82A JUMP JUMPDEST SWAP2 POP PUSH2 0xD57 DUP4 PUSH2 0x82A JUMP JUMPDEST SWAP3 POP DUP3 DUP3 SUB SWAP1 POP DUP2 DUP2 GT ISZERO PUSH2 0xD6F JUMPI PUSH2 0xD6E PUSH2 0xD15 JUMP JUMPDEST JUMPDEST SWAP3 SWAP2 POP POP JUMP JUMPDEST PUSH0 PUSH2 0xD7F DUP3 PUSH2 0x82A JUMP JUMPDEST SWAP2 POP PUSH2 0xD8A DUP4 PUSH2 0x82A JUMP JUMPDEST SWAP3 POP DUP3 DUP3 ADD SWAP1 POP DUP1 DUP3 GT ISZERO PUSH2 0xDA2 JUMPI PUSH2 0xDA1 PUSH2 0xD15 JUMP JUMPDEST JUMPDEST SWAP3 SWAP2 POP POP JUMP JUMPDEST PUSH32 0x4E487B7100000000000000000000000000000000000000000000000000000000 PUSH0 MSTORE PUSH1 0x32 PUSH1 0x4 MSTORE PUSH1 0x24 PUSH0 REVERT JUMPDEST PUSH32 0x4E487B7100000000000000000000000000000000000000000000000000000000 PUSH0 MSTORE PUSH1 0x22 PUSH1 0x4 MSTORE PUSH1 0x24 PUSH0 REVERT JUMPDEST PUSH0 PUSH1 0x2 DUP3 DIV SWAP1 POP PUSH1 0x1 DUP3 AND DUP1 PUSH2 0xE19 JUMPI PUSH1 0x7F DUP3 AND SWAP2 POP JUMPDEST PUSH1 0x20 DUP3 LT DUP2 SUB PUSH2 0xE2C JUMPI PUSH2 0xE2B PUSH2 0xDD5 JUMP JUMPDEST JUMPDEST POP SWAP2 SWAP1 POP JUMP JUMPDEST PUSH0 DUP2 SLOAD SWAP1 POP PUSH2 0xE40 DUP2 PUSH2 0xE02 JUMP JUMPDEST SWAP1 POP SWAP2 SWAP1 POP JUMP JUMPDEST PUSH0 DUP2 SWAP1 POP DUP2 PUSH0 MSTORE PUSH1 0x20 PUSH0 KECCAK256 SWAP1 POP SWAP2 SWAP1 POP JUMP JUMPDEST PUSH0 DUP2 SWAP1 POP DUP2 PUSH0 MSTORE PUSH1 0x20 PUSH0 KECCAK256 SWAP1 POP SWAP2 SWAP1 POP JUMP JUMPDEST PUSH0 PUSH1 0x20 PUSH1 0x1F DUP4 ADD DIV SWAP1 POP SWAP2 SWAP1 POP JUMP JUMPDEST PUSH0 DUP3 DUP3 SHL SWAP1 POP SWAP3 SWAP2 POP POP JUMP JUMPDEST PUSH0 PUSH1 0x8 DUP4 MUL PUSH2 0xEB5 PUSH32 0xFFFFFFFFFFFFFFFFFFFFFFFFFFFFFFFFFFFFFFFFFFFFFFFFFFFFFFFFFFFFFFFF DUP3 PUSH2 0xE7A JUMP JUMPDEST PUSH2 0xEBF DUP7 DUP4 PUSH2 0xE7A JUMP JUMPDEST SWAP6 POP DUP1 NOT DUP5 AND SWAP4 POP DUP1 DUP7 AND DUP5 OR SWAP3 POP POP POP SWAP4 SWAP3 POP POP POP JUMP JUMPDEST PUSH0 DUP2 SWAP1 POP SWAP2 SWAP1 POP JUMP JUMPDEST PUSH0 PUSH2 0xEFA PUSH2 0xEF5 PUSH2 0xEF0 DUP5 PUSH2 0x82A JUMP JUMPDEST PUSH2 0xED7 JUMP JUMPDEST PUSH2 0x82A JUMP JUMPDEST SWAP1 POP SWAP2 SWAP1 POP JUMP JUMPDEST PUSH0 DUP2 SWAP1 POP SWAP2 SWAP1 POP JUMP JUMPDEST PUSH2 0xF13 DUP4 PUSH2 0xEE0 JUMP JUMPDEST PUSH2 0xF27 PUSH2 0xF1F DUP3 PUSH2 0xF01 JUMP JUMPDEST DUP5 DUP5 SLOAD PUSH2 0xE86 JUMP JUMPDEST DUP3 SSTORE POP POP POP POP JUMP JUMPDEST PUSH0 SWAP1 JUMP JUMPDEST PUSH2 0xF3B PUSH2 0xF2F JUMP JUMPDEST PUSH2 0xF46 DUP2 DUP5 DUP5 PUSH2 0xF0A JUMP JUMPDEST POP POP POP JUMP JUMPDEST JUMPDEST DUP2 DUP2 LT ISZERO PUSH2 0xF69 JUMPI PUSH2 0xF5E PUSH0 DUP3 PUSH2 0xF33 JUMP JUMPDEST PUSH1 0x1 DUP2 ADD SWAP1 POP PUSH2 0xF4C JUMP JUMPDEST POP POP JUMP JUMPDEST PUSH1 0x1F DUP3 GT ISZERO PUSH2 0xFAE JUMPI PUSH2 0xF7F DUP2 PUSH2 0xE47 JUMP JUMPDEST PUSH2 0xF88 DUP5 PUSH2 0xE6B JUMP JUMPDEST DUP2 ADD PUSH1 0x20 DUP6 LT ISZERO PUSH2 0xF97 JUMPI DUP2 SWAP1 POP JUMPDEST PUSH2 0xFAB PUSH2 0xFA3 DUP6 PUSH2 0xE6B JUMP JUMPDEST DUP4 ADD DUP3 PUSH2 0xF4B JUMP JUMPDEST POP POP JUMPDEST POP POP POP JUMP JUMPDEST PUSH0 DUP3 DUP3 SHR SWAP1 POP SWAP3 SWAP2 POP POP JUMP JUMPDEST PUSH0 PUSH2 0xFCE PUSH0 NOT DUP5 PUSH1 0x8 MUL PUSH2 0xFB3 JUMP JUMPDEST NOT DUP1 DUP4 AND SWAP2 POP POP SWAP3 SWAP2 POP POP JUMP JUMPDEST PUSH0 PUSH2 0xFE6 DUP4 DUP4 PUSH2 0xFBF JUMP JUMPDEST SWAP2 POP DUP3 PUSH1 0x2 MUL DUP3 OR SWAP1 POP SWAP3 SWAP2 POP POP JUMP JUMPDEST DUP2 DUP2 SUB PUSH2 0x1004 JUMPI POP POP PUSH2 0x10D9 JUMP JUMPDEST PUSH2 0x100D DUP3 PUSH2 0xE32 JUMP JUMPDEST PUSH8 0xFFFFFFFFFFFFFFFF DUP2 GT ISZERO PUSH2 0x1026 JUMPI PUSH2 0x1025 PUSH2 0xA1F JUMP JUMPDEST JUMPDEST PUSH2 0x1030 DUP3 SLOAD PUSH2 0xE02 JUMP JUMPDEST PUSH2 0x103B DUP3 DUP3 DUP6 PUSH2 0xF6D JUMP JUMPDEST PUSH0 PUSH1 0x1F DUP4 GT PUSH1 0x1 DUP2 EQ PUSH2 0x1068 JUMPI PUSH0 DUP5 ISZERO PUSH2 0x1056 JUMPI DUP3 DUP8 ADD SLOAD SWAP1 POP JUMPDEST PUSH2 0x1060 DUP6 DUP3 PUSH2 0xFDB JUMP JUMPDEST DUP7 SSTORE POP PUSH2 0x10D2 JUMP JUMPDEST PUSH1 0x1F NOT DUP5 AND PUSH2 0x1076 DUP8 PUSH2 0xE59 JUMP JUMPDEST SWAP7 POP PUSH2 0x1081 DUP7 PUSH2 0xE47 JUMP JUMPDEST PUSH0 JUMPDEST DUP3 DUP2 LT ISZERO PUSH2 0x10A8 JUMPI DUP5 DUP10 ADD SLOAD DUP3 SSTORE PUSH1 0x1 DUP3 ADD SWAP2 POP PUSH1 0x1 DUP6 ADD SWAP5 POP PUSH1 0x20 DUP2 ADD SWAP1 POP PUSH2 0x1083 JUMP JUMPDEST DUP7 DUP4 LT ISZERO PUSH2 0x10C5 JUMPI DUP5 DUP10 ADD SLOAD PUSH2 0x10C1 PUSH1 0x1F DUP10 AND DUP3 PUSH2 0xFBF JUMP JUMPDEST DUP4 SSTORE POP JUMPDEST PUSH1 0x1 PUSH1 0x2 DUP9 MUL ADD DUP9 SSTORE POP POP POP JUMPDEST POP POP POP POP POP POP JUMPDEST JUMP JUMPDEST PUSH32 0x4E487B7100000000000000000000000000000000000000000000000000000000 PUSH0 MSTORE PUSH1 0x31 PUSH1 0x4 MSTORE PUSH1 0x24 PUSH0 REVERT JUMPDEST PUSH2 0x1111 DUP3 PUSH2 0x95F JUMP JUMPDEST PUSH8 0xFFFFFFFFFFFFFFFF DUP2 GT ISZERO PUSH2 0x112A JUMPI PUSH2 0x1129 PUSH2 0xA1F JUMP JUMPDEST JUMPDEST PUSH2 0x1134 DUP3 SLOAD PUSH2 0xE02 JUMP JUMPDEST PUSH2 0x113F DUP3 DUP3 DUP6 PUSH2 0xF6D JUMP JUMPDEST PUSH0 PUSH1 0x20 SWAP1 POP PUSH1 0x1F DUP4 GT PUSH1 0x1 DUP2 EQ PUSH2 0x1170 JUMPI PUSH0 DUP5 ISZERO PUSH2 0x115E JUMPI DUP3 DUP8 ADD MLOAD SWAP1 POP JUMPDEST PUSH2 0x1168 DUP6 DUP3 PUSH2 0xFDB JUMP JUMPDEST DUP7 SSTORE POP PUSH2 0x11CF JUMP JUMPDEST PUSH1 0x1F NOT DUP5 AND PUSH2 0x117E DUP7 PUSH2 0xE47 JUMP JUMPDEST PUSH0 JUMPDEST DUP3 DUP2 LT ISZERO PUSH2 0x11A5 JUMPI DUP5 DUP10 ADD MLOAD DUP3 SSTORE PUSH1 0x1 DUP3 ADD SWAP2 POP PUSH1 0x20 DUP6 ADD SWAP5 POP PUSH1 0x20 DUP2 ADD SWAP1 POP PUSH2 0x1180 JUMP JUMPDEST DUP7 DUP4 LT ISZERO PUSH2 0x11C2 JUMPI DUP5 DUP10 ADD MLOAD PUSH2 0x11BE PUSH1 0x1F DUP10 AND DUP3 PUSH2 0xFBF JUMP JUMPDEST DUP4 SSTORE POP JUMPDEST PUSH1 0x1 PUSH1 0x2 DUP9 MUL ADD DUP9 SSTORE POP POP POP JUMPDEST POP POP POP POP POP POP JUMP JUMPDEST PUSH32 0x53656C656374207269676874206F7074696F6E00000000000000000000000000 PUSH0 DUP3 ADD MSTORE POP JUMP JUMPDEST PUSH0 PUSH2 0x120B PUSH1 0x13 DUP4 PUSH2 0x969 JUMP JUMPDEST SWAP2 POP PUSH2 0x1216 DUP3 PUSH2 0x11D7 JUMP JUMPDEST PUSH1 0x20 DUP3 ADD SWAP1 POP SWAP2 SWAP1 POP JUMP JUMPDEST PUSH0 PUSH1 0x20 DUP3 ADD SWAP1 POP DUP2 DUP2 SUB PUSH0 DUP4 ADD MSTORE PUSH2 0x1238 DUP2 PUSH2 0x11FF JUMP JUMPDEST SWAP1 POP SWAP2 SWAP1 POP JUMP JUMPDEST PUSH32 0x5520616C726561647920766F7465640000000000000000000000000000000000 PUSH0 DUP3 ADD MSTORE POP JUMP JUMPDEST PUSH0 PUSH2 0x1273 PUSH1 0xF DUP4 PUSH2 0x969 JUMP JUMPDEST SWAP2 POP PUSH2 0x127E DUP3 PUSH2 0x123F JUMP JUMPDEST PUSH1 0x20 DUP3 ADD SWAP1 POP SWAP2 SWAP1 POP JUMP JUMPDEST PUSH0 PUSH1 0x20 DUP3 ADD SWAP1 POP DUP2 DUP2 SUB PUSH0 DUP4 ADD MSTORE PUSH2 0x12A0 DUP2 PUSH2 0x1267 JUMP JUMPDEST SWAP1 POP SWAP2 SWAP1 POP JUMP JUMPDEST PUSH0 PUSH2 0x12B1 DUP3 PUSH2 0x82A JUMP JUMPDEST SWAP2 POP PUSH32 0xFFFFFFFFFFFFFFFFFFFFFFFFFFFFFFFFFFFFFFFFFFFFFFFFFFFFFFFFFFFFFFFF DUP3 SUB PUSH2 0x12E3 JUMPI PUSH2 0x12E2 PUSH2 0xD15 JUMP JUMPDEST JUMPDEST PUSH1 0x1 DUP3 ADD SWAP1 POP SWAP2 SWAP1 POP JUMP INVALID LOG2 PUSH5 0x6970667358 0x22 SLT KECCAK256 0xCB NOT 0xAC LOG3 0xB5 INVALID SHL PUSH31 0x7F785D1664D402EF1A86ACB76884305D94F89FBBFDD6F2F864736F6C634300 ADDMOD BYTE STOP CALLER "
				},
				"gasEstimates": {
					"creation": {
						"codeDepositCost": "980000",
						"executionCost": "1019",
						"totalCost": "981019"
					},
					"external": {
						"addOptions(string)": "infinite",
						"hasVoted(address)": "2834",
						"options(uint256)": "infinite",
						"removeOption(uint256)": "infinite",
						"returnOptions()": "infinite",
						"returnVotes()": "infinite",
						"votes(uint256)": "infinite",
						"votesCount()": "2447",
						"voting(uint256)": "infinite"
					}
				},
				"methodIdentifiers": {
					"addOptions(string)": "9242850a",
					"hasVoted(address)": "09eef43e",
					"options(uint256)": "409e2205",
					"removeOption(uint256)": "32748fdb",
					"returnOptions()": "9ac28f8c",
					"returnVotes()": "357da247",
					"votes(uint256)": "5df81330",
					"votesCount()": "8778b27d",
					"voting(uint256)": "fd4a77f1"
				}
			},
			"storageLayout": {
				"storage": [
					{
						"astId": 4,
						"contract": "votingdapp/src/contract.sol:VotingApp",
						"label": "options",
						"offset": 0,
						"slot": "0",
						"type": "t_array(t_string_storage)dyn_storage"
					},
					{
						"astId": 8,
						"contract": "votingdapp/src/contract.sol:VotingApp",
						"label": "votes",
						"offset": 0,
						"slot": "1",
						"type": "t_mapping(t_uint256,t_uint256)"
					},
					{
						"astId": 12,
						"contract": "votingdapp/src/contract.sol:VotingApp",
						"label": "hasVoted",
						"offset": 0,
						"slot": "2",
						"type": "t_mapping(t_address,t_bool)"
					},
					{
						"astId": 14,
						"contract": "votingdapp/src/contract.sol:VotingApp",
						"label": "votesCount",
						"offset": 0,
						"slot": "3",
						"type": "t_uint256"
					}
				],
				"types": {
					"t_address": {
						"encoding": "inplace",
						"label": "address",
						"numberOfBytes": "20"
					},
					"t_array(t_string_storage)dyn_storage": {
						"base": "t_string_storage",
						"encoding": "dynamic_array",
						"label": "string[]",
						"numberOfBytes": "32"
					},
					"t_bool": {
						"encoding": "inplace",
						"label": "bool",
						"numberOfBytes": "1"
					},
					"t_mapping(t_address,t_bool)": {
						"encoding": "mapping",
						"key": "t_address",
						"label": "mapping(address => bool)",
						"numberOfBytes": "32",
						"value": "t_bool"
					},
					"t_mapping(t_uint256,t_uint256)": {
						"encoding": "mapping",
						"key": "t_uint256",
						"label": "mapping(uint256 => uint256)",
						"numberOfBytes": "32",
						"value": "t_uint256"
					},
					"t_string_storage": {
						"encoding": "bytes",
						"label": "string",
						"numberOfBytes": "32"
					},
					"t_uint256": {
						"encoding": "inplace",
						"label": "uint256",
						"numberOfBytes": "32"
					}
				}
			},
			"userdoc": {
				"kind": "user",
				"methods": {},
				"version": 1
			}
		}
	}
}